{"abi":[{"type":"constructor","inputs":[{"name":"initialKeeper","type":"address","internalType":"address"}],"stateMutability":"nonpayable"},{"type":"function","name":"batchUpdatePsiScores","inputs":[{"name":"slugs","type":"string[]","internalType":"string[]"},{"name":"scores_","type":"uint16[]","internalType":"uint16[]"},{"name":"grades","type":"bytes2[]","internalType":"bytes2[]"},{"name":"timestamps","type":"uint48[]","internalType":"uint48[]"},{"name":"versions","type":"uint16[]","internalType":"uint16[]"}],"outputs":[],"stateMutability":"nonpayable"},{"type":"function","name":"batchUpdateScores","inputs":[{"name":"tokens","type":"address[]","internalType":"address[]"},{"name":"scores_","type":"uint16[]","internalType":"uint16[]"},{"name":"grades","type":"bytes2[]","internalType":"bytes2[]"},{"name":"timestamps","type":"uint48[]","internalType":"uint48[]"},{"name":"versions","type":"uint16[]","internalType":"uint16[]"}],"outputs":[],"stateMutability":"nonpayable"},{"type":"function","name":"getAllPsiScores","inputs":[],"outputs":[{"name":"","type":"string[]","internalType":"string[]"},{"name":"","type":"tuple[]","internalType":"struct IBasisSIIOracle.PsiScore[]","components":[{"name":"score","type":"uint16","internalType":"uint16"},{"name":"grade","type":"bytes2","internalType":"bytes2"},{"name":"timestamp","type":"uint48","internalType":"uint48"},{"name":"version","type":"uint16","internalType":"uint16"}]}],"stateMutability":"view"},{"type":"function","name":"getAllScores","inputs":[],"outputs":[{"name":"","type":"address[]","internalType":"address[]"},{"name":"","type":"tuple[]","internalType":"struct IBasisSIIOracle.Score[]","components":[{"name":"score","type":"uint16","internalType":"uint16"},{"name":"grade","type":"bytes2","internalType":"bytes2"},{"name":"timestamp","type":"uint48","internalType":"uint48"},{"name":"version","type":"uint16","internalType":"uint16"}]}],"stateMutability":"view"},{"type":"function","name":"getCqi","inputs":[{"name":"siiToken","type":"address","internalType":"address"},{"name":"psiProtocolSlug","type":"string","internalType":"string"}],"outputs":[{"name":"cqiScore","type":"uint16","internalType":"uint16"}],"stateMutability":"view"},{"type":"function","name":"getPsiScore","inputs":[{"name":"protocolSlug","type":"string","internalType":"string"}],"outputs":[{"name":"","type":"uint16","internalType":"uint16"},{"name":"","type":"bytes2","internalType":"bytes2"},{"name":"","type":"uint48","internalType":"uint48"},{"name":"","type":"uint16","internalType":"uint16"}],"stateMutability":"view"},{"type":"function","name":"getPsiScoreCount","inputs":[],"outputs":[{"name":"","type":"uint256","internalType":"uint256"}],"stateMutability":"view"},{"type":"function","name":"getScore","inputs":[{"name":"token","type":"address","internalType":"address"}],"outputs":[{"name":"","type":"uint16","internalType":"uint16"},{"name":"","type":"bytes2","internalType":"bytes2"},{"name":"","type":"uint48","internalType":"uint48"},{"name":"","type":"uint16","internalType":"uint16"}],"stateMutability":"view"},{"type":"function","name":"getScoredTokenCount","inputs":[],"outputs":[{"name":"","type":"uint256","internalType":"uint256"}],"stateMutability":"view"},{"type":"function","name":"isPsiStale","inputs":[{"name":"protocolSlug","type":"string","internalType":"string"},{"name":"maxAge","type":"uint256","internalType":"uint256"}],"outputs":[{"name":"","type":"bool","internalType":"bool"}],"stateMutability":"view"},{"type":"function","name":"isStale","inputs":[{"name":"token","type":"address","internalType":"address"},{"name":"maxAge","type":"uint256","internalType":"uint256"}],"outputs":[{"name":"","type":"bool","internalType":"bool"}],"stateMutability":"view"},{"type":"function","name":"keeper","inputs":[],"outputs":[{"name":"","type":"address","internalType":"address"}],"stateMutability":"view"},{"type":"function","name":"owner","inputs":[],"outputs":[{"name":"","type":"address","internalType":"address"}],"stateMutability":"view"},{"type":"function","name":"pause","inputs":[],"outputs":[],"stateMutability":"nonpayable"},{"type":"function","name":"paused","inputs":[],"outputs":[{"name":"","type":"bool","internalType":"bool"}],"stateMutability":"view"},{"type":"function","name":"protocolSlugs","inputs":[{"name":"","type":"bytes32","internalType":"bytes32"}],"outputs":[{"name":"","type":"string","internalType":"string"}],"stateMutability":"view"},{"type":"function","name":"psiScores","inputs":[{"name":"","type":"bytes32","internalType":"bytes32"}],"outputs":[{"name":"score","type":"uint16","internalType":"uint16"},{"name":"grade","type":"bytes2","internalType":"bytes2"},{"name":"timestamp","type":"uint48","internalType":"uint48"},{"name":"version","type":"uint16","internalType":"uint16"}],"stateMutability":"view"},{"type":"function","name":"scoredProtocols","inputs":[{"name":"","type":"uint256","internalType":"uint256"}],"outputs":[{"name":"","type":"bytes32","internalType":"bytes32"}],"stateMutability":"view"},{"type":"function","name":"scoredTokens","inputs":[{"name":"","type":"uint256","internalType":"uint256"}],"outputs":[{"name":"","type":"address","internalType":"address"}],"stateMutability":"view"},{"type":"function","name":"scores","inputs":[{"name":"","type":"address","internalType":"address"}],"outputs":[{"name":"score","type":"uint16","internalType":"uint16"},{"name":"grade","type":"bytes2","internalType":"bytes2"},{"name":"timestamp","type":"uint48","internalType":"uint48"},{"name":"version","type":"uint16","internalType":"uint16"}],"stateMutability":"view"},{"type":"function","name":"setKeeper","inputs":[{"name":"newKeeper","type":"address","internalType":"address"}],"outputs":[],"stateMutability":"nonpayable"},{"type":"function","name":"unpause","inputs":[],"outputs":[],"stateMutability":"nonpayable"},{"type":"function","name":"updatePsiScore","inputs":[{"name":"protocolSlug","type":"string","internalType":"string"},{"name":"score","type":"uint16","internalType":"uint16"},{"name":"grade","type":"bytes2","internalType":"bytes2"},{"name":"timestamp","type":"uint48","internalType":"uint48"},{"name":"version","type":"uint16","internalType":"uint16"}],"outputs":[],"stateMutability":"nonpayable"},{"type":"function","name":"updateScore","inputs":[{"name":"token","type":"address","internalType":"address"},{"name":"score","type":"uint16","internalType":"uint16"},{"name":"grade","type":"bytes2","internalType":"bytes2"},{"name":"timestamp","type":"uint48","internalType":"uint48"},{"name":"version","type":"uint16","internalType":"uint16"}],"outputs":[],"stateMutability":"nonpayable"},{"type":"event","name":"KeeperUpdated","inputs":[{"name":"oldKeeper","type":"address","indexed":true,"internalType":"address"},{"name":"newKeeper","type":"address","indexed":true,"internalType":"address"}],"anonymous":false},{"type":"event","name":"Paused","inputs":[{"name":"by","type":"address","indexed":true,"internalType":"address"}],"anonymous":false},{"type":"event","name":"PsiScoreUpdated","inputs":[{"name":"slugHash","type":"bytes32","indexed":true,"internalType":"bytes32"},{"name":"slug","type":"string","indexed":false,"internalType":"string"},{"name":"score","type":"uint16","indexed":false,"internalType":"uint16"},{"name":"grade","type":"bytes2","indexed":false,"internalType":"bytes2"},{"name":"timestamp","type":"uint48","indexed":false,"internalType":"uint48"},{"name":"version","type":"uint16","indexed":false,"internalType":"uint16"}],"anonymous":false},{"type":"event","name":"ScoreUpdated","inputs":[{"name":"token","type":"address","indexed":true,"internalType":"address"},{"name":"score","type":"uint16","indexed":false,"internalType":"uint16"},{"name":"grade","type":"bytes2","indexed":false,"internalType":"bytes2"},{"name":"timestamp","type":"uint48","indexed":false,"internalType":"uint48"},{"name":"version","type":"uint16","indexed":false,"internalType":"uint16"}],"anonymous":false},{"type":"event","name":"Unpaused","inputs":[{"name":"by","type":"address","indexed":true,"internalType":"address"}],"anonymous":false}],"bytecode":{"object":"0x608060405234801562000010575f80fd5b5060405162002204380380620022048339810160408190526200003391620000b6565b6001600160a01b038116620000835760405162461bcd60e51b81526020600482015260126024820152712130b9b4b99d103d32b9379035b2b2b832b960711b604482015260640160405180910390fd5b5f8054336001600160a01b031991821617909155600180549091166001600160a01b0392909216919091179055620000e5565b5f60208284031215620000c7575f80fd5b81516001600160a01b0381168114620000de575f80fd5b9392505050565b61211180620000f35f395ff3fe608060405234801561000f575f80fd5b5060043610610153575f3560e01c80638185b1b0116100bf578063ad8b2be311610079578063ad8b2be314610366578063ce9ef3e914610379578063d47875d014610381578063db021cfc14610401578063e30e1a2214610417578063e40f7fe31461042a575f80fd5b80638185b1b0146102fe5780638456cb591461031057806387d06196146103185780638da5cb5b1461032e578063992a08af14610340578063aced166114610353575f80fd5b8063564b9efa11610110578063564b9efa1461022b5780635c975abb1461023e5780636f7e2bb714610252578063748747e61461027d57806376dd110f146102905780638104c950146102d8575f80fd5b806314c2052c146101575780632f5e78c3146101b85780633a662243146101cd5780633f437043146101e05780633f4ba83a1461020057806352cfc67014610208575b5f80fd5b61019f6101653660046117c0565b60056020525f908152604090205461ffff8082169162010000810460f01b9165ffffffffffff600160201b83041691600160501b90041684565b6040516101af94939291906117d7565b60405180910390f35b6101cb6101c6366004611867565b61043d565b005b61019f6101db36600461190d565b610776565b6101f36101ee3660046117c0565b610811565b6040516101af919061198f565b6101cb6108a8565b61021b6102163660046119a1565b61090a565b60405190151581526020016101af565b6101cb6102393660046119e9565b6109c7565b60015461021b90600160a01b900460ff1681565b6102656102603660046117c0565b610cfd565b6040516001600160a01b0390911681526020016101af565b6101cb61028b366004611a69565b610d25565b61019f61029e366004611a69565b60026020525f908152604090205461ffff8082169162010000810460f01b9165ffffffffffff600160201b83041691600160501b90041684565b6102eb6102e6366004611a82565b610dea565b60405161ffff90911681526020016101af565b6003545b6040519081526020016101af565b6101cb610f26565b610320610f8e565b6040516101af929190611b0d565b5f54610265906001600160a01b031681565b6101cb61034e366004611bda565b61112a565b600154610265906001600160a01b031681565b6101cb610374366004611bda565b6112d3565b600654610302565b61019f61038f366004611a69565b6001600160a01b03165f908152600260209081526040918290208251608081018452905461ffff80821680845262010000830460f01b6001600160f01b031916948401859052600160201b830465ffffffffffff16958401869052600160501b90920416606090920182905293919291565b61040961146c565b6040516101af929190611cc0565b61021b610425366004611d62565b6116a6565b6103026104383660046117c0565b611744565b6001546001600160a01b031633146104705760405162461bcd60e51b815260040161046790611d8a565b60405180910390fd5b600154600160a01b900460ff161561049a5760405162461bcd60e51b815260040161046790611db5565b6001600160a01b0385166104e65760405162461bcd60e51b815260206004820152601360248201527242617369733a207a65726f206164647265737360681b6044820152606401610467565b6127108461ffff1611156105385760405162461bcd60e51b815260206004820152601960248201527842617369733a2073636f7265206f7574206f662072616e676560381b6044820152606401610467565b4265ffffffffffff168265ffffffffffff1611156105925760405162461bcd60e51b8152602060048201526017602482015276042617369733a206675747572652074696d657374616d7604c1b6044820152606401610467565b6001600160a01b0385165f9081526002602052604090205465ffffffffffff600160201b9091048116908316116106015760405162461bcd60e51b815260206004820152601360248201527242617369733a207374616c652075706461746560681b6044820152606401610467565b6040805160808101825261ffff80871682526001600160f01b03198616602080840191825265ffffffffffff808816858701908152878516606087019081526001600160a01b038d165f90815260028552888120975188549651935192518816600160501b0261ffff60501b1993909516600160201b02929092166bffffffffffffffff000000001960f09490941c620100000263ffffffff1990971692909716919091179490941716939093179290921790925560049052205460ff16610728576001600160a01b0385165f818152600460205260408120805460ff191660019081179091556003805491820181559091527fc2575a0e9e593c00f959f8c92f12db2869c3395a3b0502d05e2516446f71f85b0180546001600160a01b03191690911790555b846001600160a01b03167f28352a8923de3f95584e24739181214ec08236ab56288f6a18f0f17681677cf48585858560405161076794939291906117d7565b60405180910390a25050505050565b5f805f805f868660405160200161078e929190611ddc565b60408051808303601f1901815282825280516020918201205f908152600582528290206080840183525461ffff80821680865262010000830460f01b6001600160f01b031916938601849052600160201b830465ffffffffffff16948601859052600160501b9092041660609094018490529a9099509097509095509350505050565b60086020525f90815260409020805461082990611deb565b80601f016020809104026020016040519081016040528092919081815260200182805461085590611deb565b80156108a05780601f10610877576101008083540402835291602001916108a0565b820191905f5260205f20905b81548152906001019060200180831161088357829003601f168201915b505050505081565b5f546001600160a01b031633146108d15760405162461bcd60e51b815260040161046790611e23565b6001805460ff60a01b1916905560405133907f5db9ee0a495bf2e6ff9c91a7834c1ba4fdd244a5e8aa4e537bd38aeae4b073aa905f90a2565b5f80848460405160200161091f929190611ddc565b60408051601f1981840301815282825280516020918201205f818152600583528381206080860185525461ffff80821687526001600160f01b031962010000830460f01b169487019490945265ffffffffffff600160201b820416948601859052600160501b900490921660608501529350036109a1576001925050506109c0565b83816040015165ffffffffffff16426109ba9190611e61565b11925050505b9392505050565b6001546001600160a01b031633146109f15760405162461bcd60e51b815260040161046790611d8a565b600154600160a01b900460ff1615610a1b5760405162461bcd60e51b815260040161046790611db5565b84610a5c5760405162461bcd60e51b815260206004820152601160248201527042617369733a20656d70747920736c756760781b6044820152606401610467565b6127108461ffff161115610aae5760405162461bcd60e51b815260206004820152601960248201527842617369733a2073636f7265206f7574206f662072616e676560381b6044820152606401610467565b4265ffffffffffff168265ffffffffffff161115610b085760405162461bcd60e51b8152602060048201526017602482015276042617369733a206675747572652074696d657374616d7604c1b6044820152606401610467565b5f8686604051602001610b1c929190611ddc565b60408051601f1981840301815291815281516020928301205f818152600590935291205490915065ffffffffffff600160201b909104811690841611610b9a5760405162461bcd60e51b815260206004820152601360248201527242617369733a207374616c652075706461746560681b6044820152606401610467565b6040805160808101825261ffff80881682526001600160f01b03198716602080840191825265ffffffffffff808916858701908152888516606087019081525f89815260058552888120975188549651935192518816600160501b0261ffff60501b1993909516600160201b02929092166bffffffffffffffff000000001960f09490941c620100000263ffffffff1990971692909716919091179490941716939093179290921790925560079052205460ff16610cb2575f818152600760209081526040808320805460ff191660019081179091556006805491820190557ff652222313e28459528d920b65115c16c04f3efc82aaedc97be59f3f377c0d3f0184905560089091529020610cb0878983611ed4565b505b807f855d4516f14e9bd54d285a0d25598ff6fc50f78382b45798f10c6158d260ef74888888888888604051610cec96959493929190611f8e565b60405180910390a250505050505050565b60038181548110610d0c575f80fd5b5f918252602090912001546001600160a01b0316905081565b5f546001600160a01b03163314610d4e5760405162461bcd60e51b815260040161046790611e23565b6001600160a01b038116610d995760405162461bcd60e51b81526020600482015260126024820152712130b9b4b99d103d32b9379035b2b2b832b960711b6044820152606401610467565b600180546001600160a01b038381166001600160a01b0319831681179093556040519116919082907f53d3703fe259def57584466f32d1b94c30278008c683c21b04501c4966f13a69905f90a35050565b6001600160a01b0383165f9081526002602090815260408083208151608081018352905461ffff80821683526001600160f01b031962010000830460f01b168386015265ffffffffffff600160201b83041683850152600160501b909104166060820152905190918391610e62918791879101611ddc565b60408051601f1981840301815282825280516020918201205f818152600583528390206080850184525461ffff80821686526001600160f01b031962010000830460f01b169386019390935265ffffffffffff600160201b82041693850193909352600160501b909204811660608401528451919350161580610ee85750805161ffff16155b15610ef8575f93505050506109c0565b805183515f91610f0f9161ffff9182169116611ff0565b9050610f1a81611763565b98975050505050505050565b5f546001600160a01b03163314610f4f5760405162461bcd60e51b815260040161046790611e23565b6001805460ff60a01b1916600160a01b17905560405133907f62e78cea01bee320cd4e420270b5ea74000d11b0c9f74754ebdbfc544b05a258905f90a2565b60035460609081905f8167ffffffffffffffff811115610fb057610fb0611e74565b60405190808252806020026020018201604052801561100057816020015b604080516080810182525f8082526020808301829052928201819052606082015282525f19909201910181610fce5790505b5090505f5b828110156110c25760025f6003838154811061102357611023612007565b5f9182526020808320909101546001600160a01b0316835282810193909352604091820190208151608081018352905461ffff80821683526001600160f01b031962010000830460f01b169483019490945265ffffffffffff600160201b82041692820192909252600160501b909104909116606082015282518390839081106110af576110af612007565b6020908102919091010152600101611005565b506003818180548060200260200160405190810160405280929190818152602001828054801561111957602002820191905f5260205f20905b81546001600160a01b031681526001909101906020018083116110fb575b505050505091509350935050509091565b6001546001600160a01b031633146111545760405162461bcd60e51b815260040161046790611d8a565b600154600160a01b900460ff161561117e5760405162461bcd60e51b815260040161046790611db5565b888714801561118c57508885145b801561119757508883145b80156111a257508881145b6111ee5760405162461bcd60e51b815260206004820152601c60248201527f42617369733a206172726179206c656e677468206d69736d61746368000000006044820152606401610467565b5f5b898110156112c6576112be8b8b8381811061120d5761120d612007565b90506020020160208101906112229190611a69565b8a8a8481811061123457611234612007565b9050602002016020810190611249919061201b565b89898581811061125b5761125b612007565b90506020020160208101906112709190612034565b88888681811061128257611282612007565b9050602002016020810190611297919061204d565b8787878181106112a9576112a9612007565b90506020020160208101906101c6919061201b565b6001016111f0565b5050505050505050505050565b6001546001600160a01b031633146112fd5760405162461bcd60e51b815260040161046790611d8a565b600154600160a01b900460ff16156113275760405162461bcd60e51b815260040161046790611db5565b888714801561133557508885145b801561134057508883145b801561134b57508881145b6113975760405162461bcd60e51b815260206004820152601c60248201527f42617369733a206172726179206c656e677468206d69736d61746368000000006044820152606401610467565b5f5b898110156112c6576114648b8b838181106113b6576113b6612007565b90506020028101906113c89190612066565b8b8b858181106113da576113da612007565b90506020020160208101906113ef919061201b565b8a8a8681811061140157611401612007565b90506020020160208101906114169190612034565b89898781811061142857611428612007565b905060200201602081019061143d919061204d565b88888881811061144f5761144f612007565b9050602002016020810190610239919061201b565b600101611399565b60065460609081905f8167ffffffffffffffff81111561148e5761148e611e74565b6040519080825280602002602001820160405280156114c157816020015b60608152602001906001900390816114ac5790505b5090505f8267ffffffffffffffff8111156114de576114de611e74565b60405190808252806020026020018201604052801561152e57816020015b604080516080810182525f8082526020808301829052928201819052606082015282525f199092019101816114fc5790505b5090505f5b8381101561169b575f6006828154811061154f5761154f612007565b905f5260205f200154905060085f8281526020019081526020015f20805461157690611deb565b80601f01602080910402602001604051908101604052809291908181526020018280546115a290611deb565b80156115ed5780601f106115c4576101008083540402835291602001916115ed565b820191905f5260205f20905b8154815290600101906020018083116115d057829003601f168201915b505050505084838151811061160457611604612007565b6020908102919091018101919091525f828152600582526040908190208151608081018352905461ffff80821683526001600160f01b031962010000830460f01b169483019490945265ffffffffffff600160201b82041692820192909252600160501b9091049091166060820152835184908490811061168757611687612007565b602090810291909101015250600101611533565b509094909350915050565b6001600160a01b0382165f9081526002602090815260408083208151608081018352905461ffff80821683526001600160f01b031962010000830460f01b169483019490945265ffffffffffff600160201b820416928201839052600160501b90049092166060830152820361172057600191505061173e565b82816040015165ffffffffffff16426117399190611e61565b119150505b92915050565b60068181548110611753575f80fd5b5f91825260209091200154905081565b5f815f0361177257505f919050565b5f60026117808460016120a9565b61178a91906120bc565b9050825b808210156109c05750806002816117a581876120bc565b6117af91906120a9565b6117b991906120bc565b915061178e565b5f602082840312156117d0575f80fd5b5035919050565b61ffff94851681526001600160f01b031993909316602084015265ffffffffffff919091166040830152909116606082015260800190565b80356001600160a01b0381168114611825575f80fd5b919050565b803561ffff81168114611825575f80fd5b80356001600160f01b031981168114611825575f80fd5b803565ffffffffffff81168114611825575f80fd5b5f805f805f60a0868803121561187b575f80fd5b6118848661180f565b94506118926020870161182a565b93506118a06040870161183b565b92506118ae60608701611852565b91506118bc6080870161182a565b90509295509295909350565b5f8083601f8401126118d8575f80fd5b50813567ffffffffffffffff8111156118ef575f80fd5b602083019150836020828501011115611906575f80fd5b9250929050565b5f806020838503121561191e575f80fd5b823567ffffffffffffffff811115611934575f80fd5b611940858286016118c8565b90969095509350505050565b5f81518084525f5b8181101561197057602081850181015186830182015201611954565b505f602082860101526020601f19601f83011685010191505092915050565b602081525f6109c0602083018461194c565b5f805f604084860312156119b3575f80fd5b833567ffffffffffffffff8111156119c9575f80fd5b6119d5868287016118c8565b909790965060209590950135949350505050565b5f805f805f8060a087890312156119fe575f80fd5b863567ffffffffffffffff811115611a14575f80fd5b611a2089828a016118c8565b9097509550611a3390506020880161182a565b9350611a416040880161183b565b9250611a4f60608801611852565b9150611a5d6080880161182a565b90509295509295509295565b5f60208284031215611a79575f80fd5b6109c08261180f565b5f805f60408486031215611a94575f80fd5b611a9d8461180f565b9250602084013567ffffffffffffffff811115611ab8575f80fd5b611ac4868287016118c8565b9497909650939450505050565b805161ffff90811683526020808301516001600160f01b0319169084015260408083015165ffffffffffff169084015260609182015116910152565b604080825283519082018190525f906020906060840190828701845b82811015611b4e5781516001600160a01b031684529284019290840190600101611b29565b505050838103828501528451808252858301918301905f5b81811015611b8c57611b79838551611ad1565b9284019260809290920191600101611b66565b5090979650505050505050565b5f8083601f840112611ba9575f80fd5b50813567ffffffffffffffff811115611bc0575f80fd5b6020830191508360208260051b8501011115611906575f80fd5b5f805f805f805f805f8060a08b8d031215611bf3575f80fd5b8a3567ffffffffffffffff80821115611c0a575f80fd5b611c168e838f01611b99565b909c509a5060208d0135915080821115611c2e575f80fd5b611c3a8e838f01611b99565b909a50985060408d0135915080821115611c52575f80fd5b611c5e8e838f01611b99565b909850965060608d0135915080821115611c76575f80fd5b611c828e838f01611b99565b909650945060808d0135915080821115611c9a575f80fd5b50611ca78d828e01611b99565b915080935050809150509295989b9194979a5092959850565b5f604082016040835280855180835260608501915060608160051b860101925060208088015f5b83811015611d1557605f19888703018552611d0386835161194c565b95509382019390820190600101611ce7565b5050858403818701528651808552878201948201935091505f5b82811015611d5557611d42848651611ad1565b9381019360809390930192600101611d2f565b5091979650505050505050565b5f8060408385031215611d73575f80fd5b611d7c8361180f565b946020939093013593505050565b6020808252601190820152702130b9b4b99d103737ba1035b2b2b832b960791b604082015260600190565b6020808252600d908201526c10985cda5cce881c185d5cd959609a1b604082015260600190565b818382375f9101908152919050565b600181811c90821680611dff57607f821691505b602082108103611e1d57634e487b7160e01b5f52602260045260245ffd5b50919050565b60208082526010908201526f2130b9b4b99d103737ba1037bbb732b960811b604082015260600190565b634e487b7160e01b5f52601160045260245ffd5b8181038181111561173e5761173e611e4d565b634e487b7160e01b5f52604160045260245ffd5b601f821115611ecf57805f5260205f20601f840160051c81016020851015611ead5750805b601f840160051c820191505b81811015611ecc575f8155600101611eb9565b50505b505050565b67ffffffffffffffff831115611eec57611eec611e74565b611f0083611efa8354611deb565b83611e88565b5f601f841160018114611f31575f8515611f1a5750838201355b5f19600387901b1c1916600186901b178355611ecc565b5f83815260208120601f198716915b82811015611f605786850135825560209485019460019092019101611f40565b5086821015611f7c575f1960f88860031b161c19848701351681555b505060018560011b0183555050505050565b60a081528560a0820152858760c08301375f60c087830181019190915261ffff95861660208301526001600160f01b031994909416604082015265ffffffffffff9290921660608301529092166080830152601f909201601f19160101919050565b808202811582820484141761173e5761173e611e4d565b634e487b7160e01b5f52603260045260245ffd5b5f6020828403121561202b575f80fd5b6109c08261182a565b5f60208284031215612044575f80fd5b6109c08261183b565b5f6020828403121561205d575f80fd5b6109c082611852565b5f808335601e1984360301811261207b575f80fd5b83018035915067ffffffffffffffff821115612095575f80fd5b602001915036819003821315611906575f80fd5b8082018082111561173e5761173e611e4d565b5f826120d657634e487b7160e01b5f52601260045260245ffd5b50049056fea26469706673582212207a48305cd562ec0a778c77de4eda690801ffb66138233716f02460bdd650ff6264736f6c63430008180033","linkReferences":{}},"methodIdentifiers":{"batchUpdatePsiScores(string[],uint16[],bytes2[],uint48[],uint16[])":"ad8b2be3","batchUpdateScores(address[],uint16[],bytes2[],uint48[],uint16[])":"992a08af","getAllPsiScores()":"db021cfc","getAllScores()":"87d06196","getCqi(address,string)":"8104c950","getPsiScore(string)":"3a662243","getPsiScoreCount()":"ce9ef3e9","getScore(address)":"d47875d0","getScoredTokenCount()":"8185b1b0","isPsiStale(string,uint256)":"52cfc670","isStale(address,uint256)":"e30e1a22","keeper()":"aced1661","owner()":"8da5cb5b","pause()":"8456cb59","paused()":"5c975abb","protocolSlugs(bytes32)":"3f437043","psiScores(bytes32)":"14c2052c","scoredProtocols(uint256)":"e40f7fe3","scoredTokens(uint256)":"6f7e2bb7","scores(address)":"76dd110f","setKeeper(address)":"748747e6","unpause()":"3f4ba83a","updatePsiScore(string,uint16,bytes2,uint48,uint16)":"564b9efa","updateScore(address,uint16,bytes2,uint48,uint16)":"2f5e78c3"},"id":0}