{"abi":[{"type":"constructor","inputs":[{"name":"initialKeeper","type":"address","internalType":"address"}],"stateMutability":"nonpayable"},{"type":"function","name":"batchUpdatePsiScores","inputs":[{"name":"slugs","type":"string[]","internalType":"string[]"},{"name":"scores_","type":"uint16[]","internalType":"uint16[]"},{"name":"grades","type":"bytes2[]","internalType":"bytes2[]"},{"name":"timestamps","type":"uint48[]","internalType":"uint48[]"},{"name":"versions","type":"uint16[]","internalType":"uint16[]"}],"outputs":[],"stateMutability":"nonpayable"},{"type":"function","name":"batchUpdateScores","inputs":[{"name":"tokens","type":"address[]","internalType":"address[]"},{"name":"scores_","type":"uint16[]","internalType":"uint16[]"},{"name":"grades","type":"bytes2[]","internalType":"bytes2[]"},{"name":"timestamps","type":"uint48[]","internalType":"uint48[]"},{"name":"versions","type":"uint16[]","internalType":"uint16[]"}],"outputs":[],"stateMutability":"nonpayable"},{"type":"function","name":"getAllPsiScores","inputs":[],"outputs":[{"name":"","type":"string[]","internalType":"string[]"},{"name":"","type":"tuple[]","internalType":"struct IBasisSIIOracle.PsiScore[]","components":[{"name":"score","type":"uint16","internalType":"uint16"},{"name":"grade","type":"bytes2","internalType":"bytes2"},{"name":"timestamp","type":"uint48","internalType":"uint48"},{"name":"version","type":"uint16","internalType":"uint16"}]}],"stateMutability":"view"},{"type":"function","name":"getAllScores","inputs":[],"outputs":[{"name":"","type":"address[]","internalType":"address[]"},{"name":"","type":"tuple[]","internalType":"struct IBasisSIIOracle.Score[]","components":[{"name":"score","type":"uint16","internalType":"uint16"},{"name":"grade","type":"bytes2","internalType":"bytes2"},{"name":"timestamp","type":"uint48","internalType":"uint48"},{"name":"version","type":"uint16","internalType":"uint16"}]}],"stateMutability":"view"},{"type":"function","name":"getCqi","inputs":[{"name":"siiToken","type":"address","internalType":"address"},{"name":"psiProtocolSlug","type":"string","internalType":"string"}],"outputs":[{"name":"cqiScore","type":"uint16","internalType":"uint16"}],"stateMutability":"view"},{"type":"function","name":"getPsiScore","inputs":[{"name":"protocolSlug","type":"string","internalType":"string"}],"outputs":[{"name":"","type":"uint16","internalType":"uint16"},{"name":"","type":"bytes2","internalType":"bytes2"},{"name":"","type":"uint48","internalType":"uint48"},{"name":"","type":"uint16","internalType":"uint16"}],"stateMutability":"view"},{"type":"function","name":"getPsiScoreCount","inputs":[],"outputs":[{"name":"","type":"uint256","internalType":"uint256"}],"stateMutability":"view"},{"type":"function","name":"getReportHash","inputs":[{"name":"entityId","type":"bytes32","internalType":"bytes32"}],"outputs":[{"name":"reportHash","type":"bytes32","internalType":"bytes32"},{"name":"lensId","type":"bytes4","internalType":"bytes4"},{"name":"timestamp","type":"uint48","internalType":"uint48"}],"stateMutability":"view"},{"type":"function","name":"getScore","inputs":[{"name":"token","type":"address","internalType":"address"}],"outputs":[{"name":"","type":"uint16","internalType":"uint16"},{"name":"","type":"bytes2","internalType":"bytes2"},{"name":"","type":"uint48","internalType":"uint48"},{"name":"","type":"uint16","internalType":"uint16"}],"stateMutability":"view"},{"type":"function","name":"getScoredTokenCount","inputs":[],"outputs":[{"name":"","type":"uint256","internalType":"uint256"}],"stateMutability":"view"},{"type":"function","name":"isPsiStale","inputs":[{"name":"protocolSlug","type":"string","internalType":"string"},{"name":"maxAge","type":"uint256","internalType":"uint256"}],"outputs":[{"name":"","type":"bool","internalType":"bool"}],"stateMutability":"view"},{"type":"function","name":"isStale","inputs":[{"name":"token","type":"address","internalType":"address"},{"name":"maxAge","type":"uint256","internalType":"uint256"}],"outputs":[{"name":"","type":"bool","internalType":"bool"}],"stateMutability":"view"},{"type":"function","name":"keeper","inputs":[],"outputs":[{"name":"","type":"address","internalType":"address"}],"stateMutability":"view"},{"type":"function","name":"latestStateRoot","inputs":[],"outputs":[{"name":"","type":"bytes32","internalType":"bytes32"}],"stateMutability":"view"},{"type":"function","name":"owner","inputs":[],"outputs":[{"name":"","type":"address","internalType":"address"}],"stateMutability":"view"},{"type":"function","name":"pause","inputs":[],"outputs":[],"stateMutability":"nonpayable"},{"type":"function","name":"paused","inputs":[],"outputs":[{"name":"","type":"bool","internalType":"bool"}],"stateMutability":"view"},{"type":"function","name":"protocolSlugs","inputs":[{"name":"","type":"bytes32","internalType":"bytes32"}],"outputs":[{"name":"","type":"string","internalType":"string"}],"stateMutability":"view"},{"type":"function","name":"psiScores","inputs":[{"name":"","type":"bytes32","internalType":"bytes32"}],"outputs":[{"name":"score","type":"uint16","internalType":"uint16"},{"name":"grade","type":"bytes2","internalType":"bytes2"},{"name":"timestamp","type":"uint48","internalType":"uint48"},{"name":"version","type":"uint16","internalType":"uint16"}],"stateMutability":"view"},{"type":"function","name":"publishReportHash","inputs":[{"name":"entityId","type":"bytes32","internalType":"bytes32"},{"name":"reportHash","type":"bytes32","internalType":"bytes32"},{"name":"lensId","type":"bytes4","internalType":"bytes4"}],"outputs":[],"stateMutability":"nonpayable"},{"type":"function","name":"publishStateRoot","inputs":[{"name":"stateRoot","type":"bytes32","internalType":"bytes32"}],"outputs":[],"stateMutability":"nonpayable"},{"type":"function","name":"reportHashes","inputs":[{"name":"","type":"bytes32","internalType":"bytes32"}],"outputs":[{"name":"","type":"bytes32","internalType":"bytes32"}],"stateMutability":"view"},{"type":"function","name":"reportLenses","inputs":[{"name":"","type":"bytes32","internalType":"bytes32"}],"outputs":[{"name":"","type":"bytes4","internalType":"bytes4"}],"stateMutability":"view"},{"type":"function","name":"reportTimestamps","inputs":[{"name":"","type":"bytes32","internalType":"bytes32"}],"outputs":[{"name":"","type":"uint48","internalType":"uint48"}],"stateMutability":"view"},{"type":"function","name":"scoredProtocols","inputs":[{"name":"","type":"uint256","internalType":"uint256"}],"outputs":[{"name":"","type":"bytes32","internalType":"bytes32"}],"stateMutability":"view"},{"type":"function","name":"scoredTokens","inputs":[{"name":"","type":"uint256","internalType":"uint256"}],"outputs":[{"name":"","type":"address","internalType":"address"}],"stateMutability":"view"},{"type":"function","name":"scores","inputs":[{"name":"","type":"address","internalType":"address"}],"outputs":[{"name":"score","type":"uint16","internalType":"uint16"},{"name":"grade","type":"bytes2","internalType":"bytes2"},{"name":"timestamp","type":"uint48","internalType":"uint48"},{"name":"version","type":"uint16","internalType":"uint16"}],"stateMutability":"view"},{"type":"function","name":"setKeeper","inputs":[{"name":"newKeeper","type":"address","internalType":"address"}],"outputs":[],"stateMutability":"nonpayable"},{"type":"function","name":"stateRootTimestamp","inputs":[],"outputs":[{"name":"","type":"uint48","internalType":"uint48"}],"stateMutability":"view"},{"type":"function","name":"unpause","inputs":[],"outputs":[],"stateMutability":"nonpayable"},{"type":"function","name":"updatePsiScore","inputs":[{"name":"protocolSlug","type":"string","internalType":"string"},{"name":"score","type":"uint16","internalType":"uint16"},{"name":"grade","type":"bytes2","internalType":"bytes2"},{"name":"timestamp","type":"uint48","internalType":"uint48"},{"name":"version","type":"uint16","internalType":"uint16"}],"outputs":[],"stateMutability":"nonpayable"},{"type":"function","name":"updateScore","inputs":[{"name":"token","type":"address","internalType":"address"},{"name":"score","type":"uint16","internalType":"uint16"},{"name":"grade","type":"bytes2","internalType":"bytes2"},{"name":"timestamp","type":"uint48","internalType":"uint48"},{"name":"version","type":"uint16","internalType":"uint16"}],"outputs":[],"stateMutability":"nonpayable"},{"type":"event","name":"KeeperUpdated","inputs":[{"name":"oldKeeper","type":"address","indexed":true,"internalType":"address"},{"name":"newKeeper","type":"address","indexed":true,"internalType":"address"}],"anonymous":false},{"type":"event","name":"Paused","inputs":[{"name":"by","type":"address","indexed":true,"internalType":"address"}],"anonymous":false},{"type":"event","name":"PsiScoreUpdated","inputs":[{"name":"slugHash","type":"bytes32","indexed":true,"internalType":"bytes32"},{"name":"slug","type":"string","indexed":false,"internalType":"string"},{"name":"score","type":"uint16","indexed":false,"internalType":"uint16"},{"name":"grade","type":"bytes2","indexed":false,"internalType":"bytes2"},{"name":"timestamp","type":"uint48","indexed":false,"internalType":"uint48"},{"name":"version","type":"uint16","indexed":false,"internalType":"uint16"}],"anonymous":false},{"type":"event","name":"ReportPublished","inputs":[{"name":"entityId","type":"bytes32","indexed":true,"internalType":"bytes32"},{"name":"reportHash","type":"bytes32","indexed":false,"internalType":"bytes32"},{"name":"lensId","type":"bytes4","indexed":false,"internalType":"bytes4"},{"name":"timestamp","type":"uint48","indexed":false,"internalType":"uint48"}],"anonymous":false},{"type":"event","name":"ScoreUpdated","inputs":[{"name":"token","type":"address","indexed":true,"internalType":"address"},{"name":"score","type":"uint16","indexed":false,"internalType":"uint16"},{"name":"grade","type":"bytes2","indexed":false,"internalType":"bytes2"},{"name":"timestamp","type":"uint48","indexed":false,"internalType":"uint48"},{"name":"version","type":"uint16","indexed":false,"internalType":"uint16"}],"anonymous":false},{"type":"event","name":"StateRootPublished","inputs":[{"name":"stateRoot","type":"bytes32","indexed":false,"internalType":"bytes32"},{"name":"timestamp","type":"uint48","indexed":false,"internalType":"uint48"}],"anonymous":false},{"type":"event","name":"Unpaused","inputs":[{"name":"by","type":"address","indexed":true,"internalType":"address"}],"anonymous":false}],"bytecode":{"object":"0x608060405234801562000010575f80fd5b50604051620025c6380380620025c68339810160408190526200003391620000b6565b6001600160a01b038116620000835760405162461bcd60e51b81526020600482015260126024820152712130b9b4b99d103d32b9379035b2b2b832b960711b604482015260640160405180910390fd5b5f8054336001600160a01b031991821617909155600180549091166001600160a01b0392909216919091179055620000e5565b5f60208284031215620000c7575f80fd5b81516001600160a01b0381168114620000de575f80fd5b9392505050565b6124d380620000f35f395ff3fe608060405234801561000f575f80fd5b50600436106101e7575f3560e01c80638456cb5911610109578063b9aa19251161009e578063e30e1a221161006e578063e30e1a22146105c1578063e40f7fe3146105d4578063e8e35f79146105e7578063ed4b1f53146105fa575f80fd5b8063b9aa192514610510578063ce9ef3e914610523578063d47875d01461052b578063db021cfc146105ab575f80fd5b8063992a08af116100d9578063992a08af146104b0578063a84db738146104c3578063aced1661146104ea578063ad8b2be3146104fd575f80fd5b80638456cb591461047757806387d061961461047f5780638da5cb5b14610495578063991beafd146104a7575f80fd5b80635c975abb1161017f578063748747e61161014f578063748747e6146103e457806376dd110f146103f75780638104c9501461043f5780638185b1b014610465575f80fd5b80635c975abb1461030d578063683e0b2f146103215780636f7e2bb71461034a578063709d783914610375575f80fd5b80633f437043116101ba5780633f437043146102af5780633f4ba83a146102cf57806352cfc670146102d7578063564b9efa146102fa575f80fd5b806314c2052c146101eb5780632f5e78c31461024c57806333d974c4146102615780633a6622431461029c575b5f80fd5b6102336101f9366004611b40565b60056020525f908152604090205461ffff8082169162010000810460f01b9165ffffffffffff600160201b83041691600160501b90041684565b6040516102439493929190611b57565b60405180910390f35b61025f61025a366004611be7565b610619565b005b61028361026f366004611b40565b600b6020525f908152604090205460e01b81565b6040516001600160e01b03199091168152602001610243565b6102336102aa366004611c8d565b610952565b6102c26102bd366004611b40565b6109ed565b6040516102439190611d0f565b61025f610a84565b6102ea6102e5366004611d21565b610ae6565b6040519015158152602001610243565b61025f610308366004611d69565b610ba3565b6001546102ea90600160a01b900460ff1681565b600d546103339065ffffffffffff1681565b60405165ffffffffffff9091168152602001610243565b61035d610358366004611b40565b610ed9565b6040516001600160a01b039091168152602001610243565b6103b8610383366004611b40565b5f90815260096020908152604080832054600b835281842054600a909352922054919260e09190911b9165ffffffffffff1690565b604080519384526001600160e01b0319909216602084015265ffffffffffff1690820152606001610243565b61025f6103f2366004611de9565b610f01565b610233610405366004611de9565b60026020525f908152604090205461ffff8082169162010000810460f01b9165ffffffffffff600160201b83041691600160501b90041684565b61045261044d366004611e02565b610fc6565b60405161ffff9091168152602001610243565b6003545b604051908152602001610243565b61025f611102565b61048761116a565b604051610243929190611e8d565b5f5461035d906001600160a01b031681565b610469600c5481565b61025f6104be366004611f5a565b611306565b6103336104d1366004611b40565b600a6020525f908152604090205465ffffffffffff1681565b60015461035d906001600160a01b031681565b61025f61050b366004611f5a565b6114af565b61025f61051e366004611b40565b611648565b600654610469565b610233610539366004611de9565b6001600160a01b03165f908152600260209081526040918290208251608081018452905461ffff80821680845262010000830460f01b6001600160f01b031916948401859052600160201b830465ffffffffffff16958401869052600160501b90920416606090920182905293919291565b6105b36116fa565b604051610243929190612040565b6102ea6105cf3660046120e2565b611934565b6104696105e2366004611b40565b6119d2565b61025f6105f536600461210a565b6119f1565b610469610608366004611b40565b60096020525f908152604090205481565b6001546001600160a01b0316331461064c5760405162461bcd60e51b81526004016106439061214c565b60405180910390fd5b600154600160a01b900460ff16156106765760405162461bcd60e51b815260040161064390612177565b6001600160a01b0385166106c25760405162461bcd60e51b815260206004820152601360248201527242617369733a207a65726f206164647265737360681b6044820152606401610643565b6127108461ffff1611156107145760405162461bcd60e51b815260206004820152601960248201527842617369733a2073636f7265206f7574206f662072616e676560381b6044820152606401610643565b4265ffffffffffff168265ffffffffffff16111561076e5760405162461bcd60e51b8152602060048201526017602482015276042617369733a206675747572652074696d657374616d7604c1b6044820152606401610643565b6001600160a01b0385165f9081526002602052604090205465ffffffffffff600160201b9091048116908316116107dd5760405162461bcd60e51b815260206004820152601360248201527242617369733a207374616c652075706461746560681b6044820152606401610643565b6040805160808101825261ffff80871682526001600160f01b03198616602080840191825265ffffffffffff808816858701908152878516606087019081526001600160a01b038d165f90815260028552888120975188549651935192518816600160501b0261ffff60501b1993909516600160201b02929092166bffffffffffffffff000000001960f09490941c620100000263ffffffff1990971692909716919091179490941716939093179290921790925560049052205460ff16610904576001600160a01b0385165f818152600460205260408120805460ff191660019081179091556003805491820181559091527fc2575a0e9e593c00f959f8c92f12db2869c3395a3b0502d05e2516446f71f85b0180546001600160a01b03191690911790555b846001600160a01b03167f28352a8923de3f95584e24739181214ec08236ab56288f6a18f0f17681677cf4858585856040516109439493929190611b57565b60405180910390a25050505050565b5f805f805f868660405160200161096a92919061219e565b60408051808303601f1901815282825280516020918201205f908152600582528290206080840183525461ffff80821680865262010000830460f01b6001600160f01b031916938601849052600160201b830465ffffffffffff16948601859052600160501b9092041660609094018490529a9099509097509095509350505050565b60086020525f908152604090208054610a05906121ad565b80601f0160208091040260200160405190810160405280929190818152602001828054610a31906121ad565b8015610a7c5780601f10610a5357610100808354040283529160200191610a7c565b820191905f5260205f20905b815481529060010190602001808311610a5f57829003601f168201915b505050505081565b5f546001600160a01b03163314610aad5760405162461bcd60e51b8152600401610643906121e5565b6001805460ff60a01b1916905560405133907f5db9ee0a495bf2e6ff9c91a7834c1ba4fdd244a5e8aa4e537bd38aeae4b073aa905f90a2565b5f808484604051602001610afb92919061219e565b60408051601f1981840301815282825280516020918201205f818152600583528381206080860185525461ffff80821687526001600160f01b031962010000830460f01b169487019490945265ffffffffffff600160201b820416948601859052600160501b90049092166060850152935003610b7d57600192505050610b9c565b83816040015165ffffffffffff1642610b969190612223565b11925050505b9392505050565b6001546001600160a01b03163314610bcd5760405162461bcd60e51b81526004016106439061214c565b600154600160a01b900460ff1615610bf75760405162461bcd60e51b815260040161064390612177565b84610c385760405162461bcd60e51b815260206004820152601160248201527042617369733a20656d70747920736c756760781b6044820152606401610643565b6127108461ffff161115610c8a5760405162461bcd60e51b815260206004820152601960248201527842617369733a2073636f7265206f7574206f662072616e676560381b6044820152606401610643565b4265ffffffffffff168265ffffffffffff161115610ce45760405162461bcd60e51b8152602060048201526017602482015276042617369733a206675747572652074696d657374616d7604c1b6044820152606401610643565b5f8686604051602001610cf892919061219e565b60408051601f1981840301815291815281516020928301205f818152600590935291205490915065ffffffffffff600160201b909104811690841611610d765760405162461bcd60e51b815260206004820152601360248201527242617369733a207374616c652075706461746560681b6044820152606401610643565b6040805160808101825261ffff80881682526001600160f01b03198716602080840191825265ffffffffffff808916858701908152888516606087019081525f89815260058552888120975188549651935192518816600160501b0261ffff60501b1993909516600160201b02929092166bffffffffffffffff000000001960f09490941c620100000263ffffffff1990971692909716919091179490941716939093179290921790925560079052205460ff16610e8e575f818152600760209081526040808320805460ff191660019081179091556006805491820190557ff652222313e28459528d920b65115c16c04f3efc82aaedc97be59f3f377c0d3f0184905560089091529020610e8c878983612296565b505b807f855d4516f14e9bd54d285a0d25598ff6fc50f78382b45798f10c6158d260ef74888888888888604051610ec896959493929190612350565b60405180910390a250505050505050565b60038181548110610ee8575f80fd5b5f918252602090912001546001600160a01b0316905081565b5f546001600160a01b03163314610f2a5760405162461bcd60e51b8152600401610643906121e5565b6001600160a01b038116610f755760405162461bcd60e51b81526020600482015260126024820152712130b9b4b99d103d32b9379035b2b2b832b960711b6044820152606401610643565b600180546001600160a01b038381166001600160a01b0319831681179093556040519116919082907f53d3703fe259def57584466f32d1b94c30278008c683c21b04501c4966f13a69905f90a35050565b6001600160a01b0383165f9081526002602090815260408083208151608081018352905461ffff80821683526001600160f01b031962010000830460f01b168386015265ffffffffffff600160201b83041683850152600160501b90910416606082015290519091839161103e91879187910161219e565b60408051601f1981840301815282825280516020918201205f818152600583528390206080850184525461ffff80821686526001600160f01b031962010000830460f01b169386019390935265ffffffffffff600160201b82041693850193909352600160501b9092048116606084015284519193501615806110c45750805161ffff16155b156110d4575f9350505050610b9c565b805183515f916110eb9161ffff91821691166123b2565b90506110f681611ae3565b98975050505050505050565b5f546001600160a01b0316331461112b5760405162461bcd60e51b8152600401610643906121e5565b6001805460ff60a01b1916600160a01b17905560405133907f62e78cea01bee320cd4e420270b5ea74000d11b0c9f74754ebdbfc544b05a258905f90a2565b60035460609081905f8167ffffffffffffffff81111561118c5761118c612236565b6040519080825280602002602001820160405280156111dc57816020015b604080516080810182525f8082526020808301829052928201819052606082015282525f199092019101816111aa5790505b5090505f5b8281101561129e5760025f600383815481106111ff576111ff6123c9565b5f9182526020808320909101546001600160a01b0316835282810193909352604091820190208151608081018352905461ffff80821683526001600160f01b031962010000830460f01b169483019490945265ffffffffffff600160201b82041692820192909252600160501b9091049091166060820152825183908390811061128b5761128b6123c9565b60209081029190910101526001016111e1565b50600381818054806020026020016040519081016040528092919081815260200182805480156112f557602002820191905f5260205f20905b81546001600160a01b031681526001909101906020018083116112d7575b505050505091509350935050509091565b6001546001600160a01b031633146113305760405162461bcd60e51b81526004016106439061214c565b600154600160a01b900460ff161561135a5760405162461bcd60e51b815260040161064390612177565b888714801561136857508885145b801561137357508883145b801561137e57508881145b6113ca5760405162461bcd60e51b815260206004820152601c60248201527f42617369733a206172726179206c656e677468206d69736d61746368000000006044820152606401610643565b5f5b898110156114a25761149a8b8b838181106113e9576113e96123c9565b90506020020160208101906113fe9190611de9565b8a8a84818110611410576114106123c9565b905060200201602081019061142591906123dd565b898985818110611437576114376123c9565b905060200201602081019061144c91906123f6565b88888681811061145e5761145e6123c9565b9050602002016020810190611473919061240f565b878787818110611485576114856123c9565b905060200201602081019061025a91906123dd565b6001016113cc565b5050505050505050505050565b6001546001600160a01b031633146114d95760405162461bcd60e51b81526004016106439061214c565b600154600160a01b900460ff16156115035760405162461bcd60e51b815260040161064390612177565b888714801561151157508885145b801561151c57508883145b801561152757508881145b6115735760405162461bcd60e51b815260206004820152601c60248201527f42617369733a206172726179206c656e677468206d69736d61746368000000006044820152606401610643565b5f5b898110156114a2576116408b8b83818110611592576115926123c9565b90506020028101906115a49190612428565b8b8b858181106115b6576115b66123c9565b90506020020160208101906115cb91906123dd565b8a8a868181106115dd576115dd6123c9565b90506020020160208101906115f291906123f6565b898987818110611604576116046123c9565b9050602002016020810190611619919061240f565b88888881811061162b5761162b6123c9565b905060200201602081019061030891906123dd565b600101611575565b6001546001600160a01b031633146116725760405162461bcd60e51b81526004016106439061214c565b600154600160a01b900460ff161561169c5760405162461bcd60e51b815260040161064390612177565b600c819055600d805465ffffffffffff19164265ffffffffffff169081179091556040805183815260208101929092527fbe38d4f9dc01265a6454b5732945538545156c99f54072a90e1333f9e64fa7a4910160405180910390a150565b60065460609081905f8167ffffffffffffffff81111561171c5761171c612236565b60405190808252806020026020018201604052801561174f57816020015b606081526020019060019003908161173a5790505b5090505f8267ffffffffffffffff81111561176c5761176c612236565b6040519080825280602002602001820160405280156117bc57816020015b604080516080810182525f8082526020808301829052928201819052606082015282525f1990920191018161178a5790505b5090505f5b83811015611929575f600682815481106117dd576117dd6123c9565b905f5260205f200154905060085f8281526020019081526020015f208054611804906121ad565b80601f0160208091040260200160405190810160405280929190818152602001828054611830906121ad565b801561187b5780601f106118525761010080835404028352916020019161187b565b820191905f5260205f20905b81548152906001019060200180831161185e57829003601f168201915b5050505050848381518110611892576118926123c9565b6020908102919091018101919091525f828152600582526040908190208151608081018352905461ffff80821683526001600160f01b031962010000830460f01b169483019490945265ffffffffffff600160201b82041692820192909252600160501b90910490911660608201528351849084908110611915576119156123c9565b6020908102919091010152506001016117c1565b509094909350915050565b6001600160a01b0382165f9081526002602090815260408083208151608081018352905461ffff80821683526001600160f01b031962010000830460f01b169483019490945265ffffffffffff600160201b820416928201839052600160501b9004909216606083015282036119ae5760019150506119cc565b82816040015165ffffffffffff16426119c79190612223565b119150505b92915050565b600681815481106119e1575f80fd5b5f91825260209091200154905081565b6001546001600160a01b03163314611a1b5760405162461bcd60e51b81526004016106439061214c565b600154600160a01b900460ff1615611a455760405162461bcd60e51b815260040161064390612177565b5f838152600960209081526040808320859055600a8252808320805465ffffffffffff19164265ffffffffffff16908117909155600b835292819020805463ffffffff191660e086901c17905580518581526001600160e01b031985169281019290925281019190915283907f09b3505c17fff1deff4d22b09e6bc7db956d23af9191572e63adae6bed0663679060600160405180910390a2505050565b5f815f03611af257505f919050565b5f6002611b0084600161246b565b611b0a919061247e565b9050825b80821015610b9c575080600281611b25818761247e565b611b2f919061246b565b611b39919061247e565b9150611b0e565b5f60208284031215611b50575f80fd5b5035919050565b61ffff94851681526001600160f01b031993909316602084015265ffffffffffff919091166040830152909116606082015260800190565b80356001600160a01b0381168114611ba5575f80fd5b919050565b803561ffff81168114611ba5575f80fd5b80356001600160f01b031981168114611ba5575f80fd5b803565ffffffffffff81168114611ba5575f80fd5b5f805f805f60a08688031215611bfb575f80fd5b611c0486611b8f565b9450611c1260208701611baa565b9350611c2060408701611bbb565b9250611c2e60608701611bd2565b9150611c3c60808701611baa565b90509295509295909350565b5f8083601f840112611c58575f80fd5b50813567ffffffffffffffff811115611c6f575f80fd5b602083019150836020828501011115611c86575f80fd5b9250929050565b5f8060208385031215611c9e575f80fd5b823567ffffffffffffffff811115611cb4575f80fd5b611cc085828601611c48565b90969095509350505050565b5f81518084525f5b81811015611cf057602081850181015186830182015201611cd4565b505f602082860101526020601f19601f83011685010191505092915050565b602081525f610b9c6020830184611ccc565b5f805f60408486031215611d33575f80fd5b833567ffffffffffffffff811115611d49575f80fd5b611d5586828701611c48565b909790965060209590950135949350505050565b5f805f805f8060a08789031215611d7e575f80fd5b863567ffffffffffffffff811115611d94575f80fd5b611da089828a01611c48565b9097509550611db3905060208801611baa565b9350611dc160408801611bbb565b9250611dcf60608801611bd2565b9150611ddd60808801611baa565b90509295509295509295565b5f60208284031215611df9575f80fd5b610b9c82611b8f565b5f805f60408486031215611e14575f80fd5b611e1d84611b8f565b9250602084013567ffffffffffffffff811115611e38575f80fd5b611e4486828701611c48565b9497909650939450505050565b805161ffff90811683526020808301516001600160f01b0319169084015260408083015165ffffffffffff169084015260609182015116910152565b604080825283519082018190525f906020906060840190828701845b82811015611ece5781516001600160a01b031684529284019290840190600101611ea9565b505050838103828501528451808252858301918301905f5b81811015611f0c57611ef9838551611e51565b9284019260809290920191600101611ee6565b5090979650505050505050565b5f8083601f840112611f29575f80fd5b50813567ffffffffffffffff811115611f40575f80fd5b6020830191508360208260051b8501011115611c86575f80fd5b5f805f805f805f805f8060a08b8d031215611f73575f80fd5b8a3567ffffffffffffffff80821115611f8a575f80fd5b611f968e838f01611f19565b909c509a5060208d0135915080821115611fae575f80fd5b611fba8e838f01611f19565b909a50985060408d0135915080821115611fd2575f80fd5b611fde8e838f01611f19565b909850965060608d0135915080821115611ff6575f80fd5b6120028e838f01611f19565b909650945060808d013591508082111561201a575f80fd5b506120278d828e01611f19565b915080935050809150509295989b9194979a5092959850565b5f604082016040835280855180835260608501915060608160051b860101925060208088015f5b8381101561209557605f19888703018552612083868351611ccc565b95509382019390820190600101612067565b5050858403818701528651808552878201948201935091505f5b828110156120d5576120c2848651611e51565b93810193608093909301926001016120af565b5091979650505050505050565b5f80604083850312156120f3575f80fd5b6120fc83611b8f565b946020939093013593505050565b5f805f6060848603121561211c575f80fd5b833592506020840135915060408401356001600160e01b031981168114612141575f80fd5b809150509250925092565b6020808252601190820152702130b9b4b99d103737ba1035b2b2b832b960791b604082015260600190565b6020808252600d908201526c10985cda5cce881c185d5cd959609a1b604082015260600190565b818382375f9101908152919050565b600181811c908216806121c157607f821691505b6020821081036121df57634e487b7160e01b5f52602260045260245ffd5b50919050565b60208082526010908201526f2130b9b4b99d103737ba1037bbb732b960811b604082015260600190565b634e487b7160e01b5f52601160045260245ffd5b818103818111156119cc576119cc61220f565b634e487b7160e01b5f52604160045260245ffd5b601f82111561229157805f5260205f20601f840160051c8101602085101561226f5750805b601f840160051c820191505b8181101561228e575f815560010161227b565b50505b505050565b67ffffffffffffffff8311156122ae576122ae612236565b6122c2836122bc83546121ad565b8361224a565b5f601f8411600181146122f3575f85156122dc5750838201355b5f19600387901b1c1916600186901b17835561228e565b5f83815260208120601f198716915b828110156123225786850135825560209485019460019092019101612302565b508682101561233e575f1960f88860031b161c19848701351681555b505060018560011b0183555050505050565b60a081528560a0820152858760c08301375f60c087830181019190915261ffff95861660208301526001600160f01b031994909416604082015265ffffffffffff9290921660608301529092166080830152601f909201601f19160101919050565b80820281158282048414176119cc576119cc61220f565b634e487b7160e01b5f52603260045260245ffd5b5f602082840312156123ed575f80fd5b610b9c82611baa565b5f60208284031215612406575f80fd5b610b9c82611bbb565b5f6020828403121561241f575f80fd5b610b9c82611bd2565b5f808335601e1984360301811261243d575f80fd5b83018035915067ffffffffffffffff821115612457575f80fd5b602001915036819003821315611c86575f80fd5b808201808211156119cc576119cc61220f565b5f8261249857634e487b7160e01b5f52601260045260245ffd5b50049056fea2646970667358221220386d6d10455f2d5c917bedd4bf625215a5d36da596ff98a1f28ce8b124aa43ac64736f6c63430008180033","linkReferences":{}},"methodIdentifiers":{"batchUpdatePsiScores(string[],uint16[],bytes2[],uint48[],uint16[])":"ad8b2be3","batchUpdateScores(address[],uint16[],bytes2[],uint48[],uint16[])":"992a08af","getAllPsiScores()":"db021cfc","getAllScores()":"87d06196","getCqi(address,string)":"8104c950","getPsiScore(string)":"3a662243","getPsiScoreCount()":"ce9ef3e9","getReportHash(bytes32)":"709d7839","getScore(address)":"d47875d0","getScoredTokenCount()":"8185b1b0","isPsiStale(string,uint256)":"52cfc670","isStale(address,uint256)":"e30e1a22","keeper()":"aced1661","latestStateRoot()":"991beafd","owner()":"8da5cb5b","pause()":"8456cb59","paused()":"5c975abb","protocolSlugs(bytes32)":"3f437043","psiScores(bytes32)":"14c2052c","publishReportHash(bytes32,bytes32,bytes4)":"e8e35f79","publishStateRoot(bytes32)":"b9aa1925","reportHashes(bytes32)":"ed4b1f53","reportLenses(bytes32)":"33d974c4","reportTimestamps(bytes32)":"a84db738","scoredProtocols(uint256)":"e40f7fe3","scoredTokens(uint256)":"6f7e2bb7","scores(address)":"76dd110f","setKeeper(address)":"748747e6","stateRootTimestamp()":"683e0b2f","unpause()":"3f4ba83a","updatePsiScore(string,uint16,bytes2,uint48,uint16)":"564b9efa","updateScore(address,uint16,bytes2,uint48,uint16)":"2f5e78c3"},"id":38}