{"abi":[{"type":"constructor","inputs":[{"name":"_baseURI","type":"string","internalType":"string"}],"stateMutability":"nonpayable"},{"type":"function","name":"approve","inputs":[{"name":"to","type":"address","internalType":"address"},{"name":"tokenId","type":"uint256","internalType":"uint256"}],"outputs":[],"stateMutability":"nonpayable"},{"type":"function","name":"balanceOf","inputs":[{"name":"owner","type":"address","internalType":"address"}],"outputs":[{"name":"","type":"uint256","internalType":"uint256"}],"stateMutability":"view"},{"type":"function","name":"baseURI","inputs":[],"outputs":[{"name":"","type":"string","internalType":"string"}],"stateMutability":"view"},{"type":"function","name":"entityToToken","inputs":[{"name":"","type":"bytes32","internalType":"bytes32"}],"outputs":[{"name":"","type":"uint256","internalType":"uint256"}],"stateMutability":"view"},{"type":"function","name":"getApproved","inputs":[{"name":"tokenId","type":"uint256","internalType":"uint256"}],"outputs":[{"name":"","type":"address","internalType":"address"}],"stateMutability":"view"},{"type":"function","name":"isApprovedForAll","inputs":[{"name":"owner","type":"address","internalType":"address"},{"name":"operator","type":"address","internalType":"address"}],"outputs":[{"name":"","type":"bool","internalType":"bool"}],"stateMutability":"view"},{"type":"function","name":"keeper","inputs":[],"outputs":[{"name":"","type":"address","internalType":"address"}],"stateMutability":"view"},{"type":"function","name":"mintRating","inputs":[{"name":"recipient","type":"address","internalType":"address"},{"name":"entityId","type":"bytes32","internalType":"bytes32"},{"name":"entityType","type":"uint8","internalType":"uint8"},{"name":"score","type":"uint16","internalType":"uint16"},{"name":"grade","type":"bytes2","internalType":"bytes2"},{"name":"confidence","type":"uint8","internalType":"uint8"},{"name":"reportHash","type":"bytes32","internalType":"bytes32"},{"name":"methodVersion","type":"uint16","internalType":"uint16"}],"outputs":[{"name":"","type":"uint256","internalType":"uint256"}],"stateMutability":"nonpayable"},{"type":"function","name":"name","inputs":[],"outputs":[{"name":"","type":"string","internalType":"string"}],"stateMutability":"view"},{"type":"function","name":"ownerOf","inputs":[{"name":"tokenId","type":"uint256","internalType":"uint256"}],"outputs":[{"name":"","type":"address","internalType":"address"}],"stateMutability":"view"},{"type":"function","name":"ratings","inputs":[{"name":"","type":"uint256","internalType":"uint256"}],"outputs":[{"name":"entityId","type":"bytes32","internalType":"bytes32"},{"name":"entityType","type":"uint8","internalType":"uint8"},{"name":"score","type":"uint16","internalType":"uint16"},{"name":"grade","type":"bytes2","internalType":"bytes2"},{"name":"confidence","type":"uint8","internalType":"uint8"},{"name":"reportHash","type":"bytes32","internalType":"bytes32"},{"name":"timestamp","type":"uint48","internalType":"uint48"},{"name":"methodVersion","type":"uint16","internalType":"uint16"}],"stateMutability":"view"},{"type":"function","name":"safeTransferFrom","inputs":[{"name":"from","type":"address","internalType":"address"},{"name":"to","type":"address","internalType":"address"},{"name":"tokenId","type":"uint256","internalType":"uint256"}],"outputs":[],"stateMutability":"nonpayable"},{"type":"function","name":"safeTransferFrom","inputs":[{"name":"from","type":"address","internalType":"address"},{"name":"to","type":"address","internalType":"address"},{"name":"tokenId","type":"uint256","internalType":"uint256"},{"name":"data","type":"bytes","internalType":"bytes"}],"outputs":[],"stateMutability":"nonpayable"},{"type":"function","name":"setApprovalForAll","inputs":[{"name":"operator","type":"address","internalType":"address"},{"name":"approved","type":"bool","internalType":"bool"}],"outputs":[],"stateMutability":"nonpayable"},{"type":"function","name":"setBaseURI","inputs":[{"name":"_baseURI","type":"string","internalType":"string"}],"outputs":[],"stateMutability":"nonpayable"},{"type":"function","name":"supportsInterface","inputs":[{"name":"interfaceId","type":"bytes4","internalType":"bytes4"}],"outputs":[{"name":"","type":"bool","internalType":"bool"}],"stateMutability":"view"},{"type":"function","name":"symbol","inputs":[],"outputs":[{"name":"","type":"string","internalType":"string"}],"stateMutability":"view"},{"type":"function","name":"tokenURI","inputs":[{"name":"tokenId","type":"uint256","internalType":"uint256"}],"outputs":[{"name":"","type":"string","internalType":"string"}],"stateMutability":"view"},{"type":"function","name":"transferFrom","inputs":[{"name":"from","type":"address","internalType":"address"},{"name":"to","type":"address","internalType":"address"},{"name":"tokenId","type":"uint256","internalType":"uint256"}],"outputs":[],"stateMutability":"nonpayable"},{"type":"function","name":"updateRating","inputs":[{"name":"tokenId","type":"uint256","internalType":"uint256"},{"name":"score","type":"uint16","internalType":"uint16"},{"name":"grade","type":"bytes2","internalType":"bytes2"},{"name":"confidence","type":"uint8","internalType":"uint8"},{"name":"reportHash","type":"bytes32","internalType":"bytes32"},{"name":"methodVersion","type":"uint16","internalType":"uint16"}],"outputs":[],"stateMutability":"nonpayable"},{"type":"event","name":"Approval","inputs":[{"name":"owner","type":"address","indexed":true,"internalType":"address"},{"name":"approved","type":"address","indexed":true,"internalType":"address"},{"name":"tokenId","type":"uint256","indexed":true,"internalType":"uint256"}],"anonymous":false},{"type":"event","name":"ApprovalForAll","inputs":[{"name":"owner","type":"address","indexed":true,"internalType":"address"},{"name":"operator","type":"address","indexed":true,"internalType":"address"},{"name":"approved","type":"bool","indexed":false,"internalType":"bool"}],"anonymous":false},{"type":"event","name":"Transfer","inputs":[{"name":"from","type":"address","indexed":true,"internalType":"address"},{"name":"to","type":"address","indexed":true,"internalType":"address"},{"name":"tokenId","type":"uint256","indexed":true,"internalType":"uint256"}],"anonymous":false},{"type":"error","name":"ERC721IncorrectOwner","inputs":[{"name":"sender","type":"address","internalType":"address"},{"name":"tokenId","type":"uint256","internalType":"uint256"},{"name":"owner","type":"address","internalType":"address"}]},{"type":"error","name":"ERC721InsufficientApproval","inputs":[{"name":"operator","type":"address","internalType":"address"},{"name":"tokenId","type":"uint256","internalType":"uint256"}]},{"type":"error","name":"ERC721InvalidApprover","inputs":[{"name":"approver","type":"address","internalType":"address"}]},{"type":"error","name":"ERC721InvalidOperator","inputs":[{"name":"operator","type":"address","internalType":"address"}]},{"type":"error","name":"ERC721InvalidOwner","inputs":[{"name":"owner","type":"address","internalType":"address"}]},{"type":"error","name":"ERC721InvalidReceiver","inputs":[{"name":"receiver","type":"address","internalType":"address"}]},{"type":"error","name":"ERC721InvalidSender","inputs":[{"name":"sender","type":"address","internalType":"address"}]},{"type":"error","name":"ERC721NonexistentToken","inputs":[{"name":"tokenId","type":"uint256","internalType":"uint256"}]},{"type":"error","name":"NotKeeper","inputs":[]}],"bytecode":{"object":"0x608060405234801562000010575f80fd5b5060405162001ab338038062001ab38339810160408190526200003391620000d4565b6040518060400160405280600c81526020016b426173697320526174696e6760a01b81525060405180604001604052806005815260200164425241544560d81b815250815f90816200008691906200022c565b5060016200009582826200022c565b5050600980546001600160a01b0319163317905550600a620000b882826200022c565b5050620002f8565b634e487b7160e01b5f52604160045260245ffd5b5f6020808385031215620000e6575f80fd5b82516001600160401b0380821115620000fd575f80fd5b818501915085601f83011262000111575f80fd5b815181811115620001265762000126620000c0565b604051601f8201601f19908116603f01168101908382118183101715620001515762000151620000c0565b81604052828152888684870101111562000169575f80fd5b5f93505b828410156200018c57848401860151818501870152928501926200016d565b5f86848301015280965050505050505092915050565b600181811c90821680620001b757607f821691505b602082108103620001d657634e487b7160e01b5f52602260045260245ffd5b50919050565b601f8211156200022757805f5260205f20601f840160051c81016020851015620002035750805b601f840160051c820191505b8181101562000224575f81556001016200020f565b50505b505050565b81516001600160401b03811115620002485762000248620000c0565b6200026081620002598454620001a2565b84620001dc565b602080601f83116001811462000296575f84156200027e5750858301515b5f19600386901b1c1916600185901b178555620002f0565b5f85815260208120601f198616915b82811015620002c657888601518255948401946001909101908401620002a5565b5085821015620002e457878501515f19600388901b60f8161c191681555b505060018460011b0185555b505050505050565b6117ad80620003065f395ff3fe608060405234801561000f575f80fd5b5060043610610127575f3560e01c806370a08231116100a9578063aced16611161006e578063aced166114610332578063b88d4fde14610345578063c87b56dd14610358578063ca6add511461036b578063e985e9c51461037e575f80fd5b806370a08231146102c45780638b988319146102e557806395d89b41146102f8578063a22cb46514610300578063a5f4a79f14610313575f80fd5b806342842e0e116100ef57806342842e0e146101bb57806355f804b3146101ce5780635d30e84d146101e15780636352211e146102a95780636c0360eb146102bc575f80fd5b806301ffc9a71461012b57806306fdde0314610153578063081812fc14610168578063095ea7b31461019357806323b872dd146101a8575b5f80fd5b61013e6101393660046110cb565b610391565b60405190151581526020015b60405180910390f35b61015b6103e2565b60405161014a919061113a565b61017b61017636600461114c565b610471565b6040516001600160a01b03909116815260200161014a565b6101a66101a136600461117e565b610498565b005b6101a66101b63660046111a6565b6104a7565b6101a66101c93660046111a6565b610535565b6101a66101dc366004611266565b610554565b6102516101ef36600461114c565b60066020525f90815260409020805460018201546002830154600390930154919260ff8083169361ffff61010085048116946301000000810460f01b9465010000000000909104909316929165ffffffffffff811691600160301b9091041688565b6040805198895260ff97881660208a015261ffff968716908901526001600160f01b0319909416606088015294909116608086015260a085015265ffffffffffff90921660c08401521660e08201526101000161014a565b61017b6102b736600461114c565b61058b565b61015b610595565b6102d76102d23660046112ab565b610621565b60405190815260200161014a565b6101a66102f33660046112fc565b610666565b61015b610785565b6101a661030e36600461135e565b610794565b6102d761032136600461114c565b60076020525f908152604090205481565b60095461017b906001600160a01b031681565b6101a6610353366004611397565b61079f565b61015b61036636600461114c565b6107b7565b6102d761037936600461140e565b610846565b61013e61038c366004611492565b6109b7565b5f6001600160e01b031982166380ac58cd60e01b14806103c157506001600160e01b03198216635b5e139f60e01b145b806103dc57506301ffc9a760e01b6001600160e01b03198316145b92915050565b60605f80546103f0906114c3565b80601f016020809104026020016040519081016040528092919081815260200182805461041c906114c3565b80156104675780601f1061043e57610100808354040283529160200191610467565b820191905f5260205f20905b81548152906001019060200180831161044a57829003601f168201915b5050505050905090565b5f61047b826109e4565b505f828152600460205260409020546001600160a01b03166103dc565b6104a3828233610a1c565b5050565b6001600160a01b0382166104d557604051633250574960e11b81525f60048201526024015b60405180910390fd5b5f6104e1838333610a29565b9050836001600160a01b0316816001600160a01b03161461052f576040516364283d7b60e01b81526001600160a01b03808616600483015260248201849052821660448201526064016104cc565b50505050565b61054f83838360405180602001604052805f81525061079f565b505050565b6009546001600160a01b0316331461057f57604051631ea2564f60e31b815260040160405180910390fd5b600a6104a3828261153f565b5f6103dc826109e4565b600a80546105a2906114c3565b80601f01602080910402602001604051908101604052809291908181526020018280546105ce906114c3565b80156106195780601f106105f057610100808354040283529160200191610619565b820191905f5260205f20905b8154815290600101906020018083116105fc57829003601f168201915b505050505081565b5f6001600160a01b03821661064b576040516322718ad960e21b81525f60048201526024016104cc565b506001600160a01b03165f9081526003602052604090205490565b6009546001600160a01b0316331461069157604051631ea2564f60e31b815260040160405180910390fd5b5f868152600260205260409020546001600160a01b03166106eb5760405162461bcd60e51b8152602060048201526014602482015273151bdad95b88191bd95cc81b9bdd08195e1a5cdd60621b60448201526064016104cc565b5f9586526006602052604090952060018101805460ff909416650100000000000265ff00000000001960f09690961c63010000000264ffff0000001961ffff988916610100021664ffffffff0019909616959095179490941794909416929092179092556002810191909155600301805492909116600160301b0267ffffffffffffffff1990921665ffffffffffff421617919091179055565b6060600180546103f0906114c3565b6104a3338383610aa2565b6107aa8484846104a7565b61052f3385858585610b69565b5f818152600260205260409020546060906001600160a01b03166108145760405162461bcd60e51b8152602060048201526014602482015273151bdad95b88191bd95cc81b9bdd08195e1a5cdd60621b60448201526064016104cc565b600a61081f83610c91565b6040516020016108309291906115fb565b6040516020818303038152906040529050919050565b6009545f906001600160a01b0316331461087357604051631ea2564f60e31b815260040160405180910390fd5b600880545f918261088383611692565b9190505590506108938a82610d97565b6040805161010080820183528b825260ff808c16602080850191825261ffff808e168688019081526001600160f01b03198e16606088019081528d86166080890190815260a089018e815265ffffffffffff42811660c08c019081528f871660e08d019081525f8f815260068a528e81209d518e55995160018e0180549851975196518d16650100000000000265ff00000000001960f09890981c6301000000029790971665ffffff00000019988b16909e0262ffffff1990991691909c161796909617949094169990991791909117909655945160028801559351600390960180549451909116600160301b0267ffffffffffffffff199094169590941694909417919091179091558b8152600790915220819055905098975050505050505050565b6001600160a01b039182165f90815260056020908152604080832093909416825291909152205460ff1690565b5f818152600260205260408120546001600160a01b0316806103dc57604051637e27328960e01b8152600481018490526024016104cc565b61054f8383836001610df8565b5f828152600260205260408120546001600160a01b03168015610a8e5760405162461bcd60e51b815260206004820152601b60248201527f536f756c626f756e643a206e6f6e2d7472616e7366657261626c65000000000060448201526064016104cc565b610a99858585610efc565b95945050505050565b6001600160a01b038316610acb5760405163a9fbf51f60e01b81525f60048201526024016104cc565b6001600160a01b038216610afd57604051630b61174360e31b81526001600160a01b03831660048201526024016104cc565b6001600160a01b038381165f81815260056020908152604080832094871680845294825291829020805460ff191686151590811790915591519182527f17307eab39ab6107e8899845ad3d59bd9653f200f220920489ca2b5937696c31910160405180910390a3505050565b6001600160a01b0383163b15610c8a57604051630a85bd0160e11b81526001600160a01b0384169063150b7a0290610bab9088908890879087906004016116aa565b6020604051808303815f875af1925050508015610be5575060408051601f3d908101601f19168201909252610be2918101906116e6565b60015b610c4c573d808015610c12576040519150601f19603f3d011682016040523d82523d5f602084013e610c17565b606091505b5080515f03610c4457604051633250574960e11b81526001600160a01b03851660048201526024016104cc565b805160208201fd5b6001600160e01b03198116630a85bd0160e11b14610c8857604051633250574960e11b81526001600160a01b03851660048201526024016104cc565b505b5050505050565b6060815f03610cb75750506040805180820190915260018152600360fc1b602082015290565b815f5b8115610ce05780610cca81611692565b9150610cd99050600a83611715565b9150610cba565b5f8167ffffffffffffffff811115610cfa57610cfa6111df565b6040519080825280601f01601f191660200182016040528015610d24576020820181803683370190505b5090505b8415610d8f5781610d3881611728565b9250610d479050600a8661173d565b610d52906030611750565b60f81b818381518110610d6757610d67611763565b60200101906001600160f81b03191690815f1a905350610d88600a86611715565b9450610d28565b949350505050565b6001600160a01b038216610dc057604051633250574960e11b81525f60048201526024016104cc565b5f610dcc83835f610a29565b90506001600160a01b0381161561054f576040516339e3563760e11b81525f60048201526024016104cc565b8080610e0c57506001600160a01b03821615155b15610ecd575f610e1b846109e4565b90506001600160a01b03831615801590610e475750826001600160a01b0316816001600160a01b031614155b8015610e5a5750610e5881846109b7565b155b15610e835760405163a9fbf51f60e01b81526001600160a01b03841660048201526024016104cc565b8115610ecb5783856001600160a01b0316826001600160a01b03167f8c5be1e5ebec7d5bd14f71427d1e84f3dd0314c0f7b2291e5b200ac8c7c3b92560405160405180910390a45b505b50505f90815260046020526040902080546001600160a01b0319166001600160a01b0392909216919091179055565b5f828152600260205260408120546001600160a01b0390811690831615610f2857610f28818486610fee565b6001600160a01b03811615610f6257610f435f855f80610df8565b6001600160a01b0381165f90815260036020526040902080545f190190555b6001600160a01b03851615610f90576001600160a01b0385165f908152600360205260409020805460010190555b5f8481526002602052604080822080546001600160a01b0319166001600160a01b0389811691821790925591518793918516917fddf252ad1be2c89b69c2b068fc378daa952ba7f163c4a11628f55a4df523b3ef91a4949350505050565b610ff9838383611052565b61054f576001600160a01b03831661102757604051637e27328960e01b8152600481018290526024016104cc565b60405163177e802f60e01b81526001600160a01b0383166004820152602481018290526044016104cc565b5f6001600160a01b03831615801590610d8f5750826001600160a01b0316846001600160a01b0316148061108b575061108b84846109b7565b80610d8f5750505f908152600460205260409020546001600160a01b03908116911614919050565b6001600160e01b0319811681146110c8575f80fd5b50565b5f602082840312156110db575f80fd5b81356110e6816110b3565b9392505050565b5f5b838110156111075781810151838201526020016110ef565b50505f910152565b5f81518084526111268160208601602086016110ed565b601f01601f19169290920160200192915050565b602081525f6110e6602083018461110f565b5f6020828403121561115c575f80fd5b5035919050565b80356001600160a01b0381168114611179575f80fd5b919050565b5f806040838503121561118f575f80fd5b61119883611163565b946020939093013593505050565b5f805f606084860312156111b8575f80fd5b6111c184611163565b92506111cf60208501611163565b9150604084013590509250925092565b634e487b7160e01b5f52604160045260245ffd5b5f67ffffffffffffffff8084111561120d5761120d6111df565b604051601f8501601f19908116603f01168101908282118183101715611235576112356111df565b8160405280935085815286868601111561124d575f80fd5b858560208301375f602087830101525050509392505050565b5f60208284031215611276575f80fd5b813567ffffffffffffffff81111561128c575f80fd5b8201601f8101841361129c575f80fd5b610d8f848235602084016111f3565b5f602082840312156112bb575f80fd5b6110e682611163565b803561ffff81168114611179575f80fd5b80356001600160f01b031981168114611179575f80fd5b803560ff81168114611179575f80fd5b5f805f805f8060c08789031215611311575f80fd5b86359550611321602088016112c4565b945061132f604088016112d5565b935061133d606088016112ec565b92506080870135915061135260a088016112c4565b90509295509295509295565b5f806040838503121561136f575f80fd5b61137883611163565b91506020830135801515811461138c575f80fd5b809150509250929050565b5f805f80608085870312156113aa575f80fd5b6113b385611163565b93506113c160208601611163565b925060408501359150606085013567ffffffffffffffff8111156113e3575f80fd5b8501601f810187136113f3575f80fd5b611402878235602084016111f3565b91505092959194509250565b5f805f805f805f80610100898b031215611426575f80fd5b61142f89611163565b97506020890135965061144460408a016112ec565b955061145260608a016112c4565b945061146060808a016112d5565b935061146e60a08a016112ec565b925060c0890135915061148360e08a016112c4565b90509295985092959890939650565b5f80604083850312156114a3575f80fd5b6114ac83611163565b91506114ba60208401611163565b90509250929050565b600181811c908216806114d757607f821691505b6020821081036114f557634e487b7160e01b5f52602260045260245ffd5b50919050565b601f82111561054f57805f5260205f20601f840160051c810160208510156115205750805b601f840160051c820191505b81811015610c8a575f815560010161152c565b815167ffffffffffffffff811115611559576115596111df565b61156d8161156784546114c3565b846114fb565b602080601f8311600181146115a0575f84156115895750858301515b5f19600386901b1c1916600185901b178555610c88565b5f85815260208120601f198616915b828110156115ce578886015182559484019460019091019084016115af565b50858210156115eb57878501515f19600388901b60f8161c191681555b5050505050600190811b01905550565b5f808454611608816114c3565b60018281168015611620576001811461163557611661565b60ff1984168752821515830287019450611661565b885f526020805f205f5b858110156116585781548a82015290840190820161163f565b50505082870194505b5050505083516116758183602088016110ed565b01949350505050565b634e487b7160e01b5f52601160045260245ffd5b5f600182016116a3576116a361167e565b5060010190565b6001600160a01b03858116825284166020820152604081018390526080606082018190525f906116dc9083018461110f565b9695505050505050565b5f602082840312156116f6575f80fd5b81516110e6816110b3565b634e487b7160e01b5f52601260045260245ffd5b5f8261172357611723611701565b500490565b5f816117365761173661167e565b505f190190565b5f8261174b5761174b611701565b500690565b808201808211156103dc576103dc61167e565b634e487b7160e01b5f52603260045260245ffdfea264697066735822122080cb477674cf37eec50aa730e2804ea5895e9e5a6764d5b8465c3411924d46ef64736f6c63430008180033","linkReferences":{}},"methodIdentifiers":{"approve(address,uint256)":"095ea7b3","balanceOf(address)":"70a08231","baseURI()":"6c0360eb","entityToToken(bytes32)":"a5f4a79f","getApproved(uint256)":"081812fc","isApprovedForAll(address,address)":"e985e9c5","keeper()":"aced1661","mintRating(address,bytes32,uint8,uint16,bytes2,uint8,bytes32,uint16)":"ca6add51","name()":"06fdde03","ownerOf(uint256)":"6352211e","ratings(uint256)":"5d30e84d","safeTransferFrom(address,address,uint256)":"42842e0e","safeTransferFrom(address,address,uint256,bytes)":"b88d4fde","setApprovalForAll(address,bool)":"a22cb465","setBaseURI(string)":"55f804b3","supportsInterface(bytes4)":"01ffc9a7","symbol()":"95d89b41","tokenURI(uint256)":"c87b56dd","transferFrom(address,address,uint256)":"23b872dd","updateRating(uint256,uint16,bytes2,uint8,bytes32,uint16)":"8b988319"},"id":37}