{"abi":[{"type":"constructor","inputs":[{"name":"_oracle","type":"address","internalType":"address"},{"name":"_threshold","type":"uint16","internalType":"uint16"},{"name":"_maxScoreAge","type":"uint256","internalType":"uint256"}],"stateMutability":"nonpayable"},{"type":"function","name":"addToken","inputs":[{"name":"token","type":"address","internalType":"address"}],"outputs":[],"stateMutability":"nonpayable"},{"type":"function","name":"checkAfterExecution","inputs":[{"name":"","type":"bytes32","internalType":"bytes32"},{"name":"","type":"bool","internalType":"bool"}],"outputs":[],"stateMutability":"view"},{"type":"function","name":"checkTransaction","inputs":[{"name":"to","type":"address","internalType":"address"},{"name":"value","type":"uint256","internalType":"uint256"},{"name":"data","type":"bytes","internalType":"bytes"},{"name":"operation","type":"uint8","internalType":"enum BasisSafeGuard.Operation"},{"name":"safeTxGas","type":"uint256","internalType":"uint256"},{"name":"baseGas","type":"uint256","internalType":"uint256"},{"name":"gasPrice","type":"uint256","internalType":"uint256"},{"name":"gasToken","type":"address","internalType":"address"},{"name":"refundReceiver","type":"address","internalType":"address payable"},{"name":"","type":"bytes","internalType":"bytes"},{"name":"","type":"address","internalType":"address"}],"outputs":[],"stateMutability":"view"},{"type":"function","name":"cqiThreshold","inputs":[],"outputs":[{"name":"","type":"uint16","internalType":"uint16"}],"stateMutability":"view"},{"type":"function","name":"getMonitoredTokens","inputs":[],"outputs":[{"name":"","type":"address[]","internalType":"address[]"}],"stateMutability":"view"},{"type":"function","name":"maxScoreAge","inputs":[],"outputs":[{"name":"","type":"uint256","internalType":"uint256"}],"stateMutability":"view"},{"type":"function","name":"monitoredTokens","inputs":[{"name":"","type":"address","internalType":"address"}],"outputs":[{"name":"","type":"bool","internalType":"bool"}],"stateMutability":"view"},{"type":"function","name":"oracle","inputs":[],"outputs":[{"name":"","type":"address","internalType":"contract IBasisSIIOracle"}],"stateMutability":"view"},{"type":"function","name":"owner","inputs":[],"outputs":[{"name":"","type":"address","internalType":"address"}],"stateMutability":"view"},{"type":"function","name":"protocolSlugs","inputs":[{"name":"","type":"address","internalType":"address"}],"outputs":[{"name":"","type":"string","internalType":"string"}],"stateMutability":"view"},{"type":"function","name":"removeToken","inputs":[{"name":"token","type":"address","internalType":"address"}],"outputs":[],"stateMutability":"nonpayable"},{"type":"function","name":"setCqiThreshold","inputs":[{"name":"_cqiThreshold","type":"uint16","internalType":"uint16"}],"outputs":[],"stateMutability":"nonpayable"},{"type":"function","name":"setMaxScoreAge","inputs":[{"name":"_maxScoreAge","type":"uint256","internalType":"uint256"}],"outputs":[],"stateMutability":"nonpayable"},{"type":"function","name":"setOracle","inputs":[{"name":"_oracle","type":"address","internalType":"address"}],"outputs":[],"stateMutability":"nonpayable"},{"type":"function","name":"setProtocolSlug","inputs":[{"name":"contractAddr","type":"address","internalType":"address"},{"name":"slug","type":"string","internalType":"string"}],"outputs":[],"stateMutability":"nonpayable"},{"type":"function","name":"setThreshold","inputs":[{"name":"_threshold","type":"uint16","internalType":"uint16"}],"outputs":[],"stateMutability":"nonpayable"},{"type":"function","name":"threshold","inputs":[],"outputs":[{"name":"","type":"uint16","internalType":"uint16"}],"stateMutability":"view"},{"type":"function","name":"tokenList","inputs":[{"name":"","type":"uint256","internalType":"uint256"}],"outputs":[{"name":"","type":"address","internalType":"address"}],"stateMutability":"view"},{"type":"event","name":"CqiThresholdUpdated","inputs":[{"name":"oldThreshold","type":"uint16","indexed":false,"internalType":"uint16"},{"name":"newThreshold","type":"uint16","indexed":false,"internalType":"uint16"}],"anonymous":false},{"type":"event","name":"MaxScoreAgeUpdated","inputs":[{"name":"oldAge","type":"uint256","indexed":false,"internalType":"uint256"},{"name":"newAge","type":"uint256","indexed":false,"internalType":"uint256"}],"anonymous":false},{"type":"event","name":"OracleUpdated","inputs":[{"name":"oldOracle","type":"address","indexed":true,"internalType":"address"},{"name":"newOracle","type":"address","indexed":true,"internalType":"address"}],"anonymous":false},{"type":"event","name":"ProtocolSlugSet","inputs":[{"name":"contractAddr","type":"address","indexed":true,"internalType":"address"},{"name":"slug","type":"string","indexed":false,"internalType":"string"}],"anonymous":false},{"type":"event","name":"ThresholdUpdated","inputs":[{"name":"oldThreshold","type":"uint16","indexed":false,"internalType":"uint16"},{"name":"newThreshold","type":"uint16","indexed":false,"internalType":"uint16"}],"anonymous":false},{"type":"event","name":"TokenAdded","inputs":[{"name":"token","type":"address","indexed":true,"internalType":"address"}],"anonymous":false},{"type":"event","name":"TokenRemoved","inputs":[{"name":"token","type":"address","indexed":true,"internalType":"address"}],"anonymous":false}],"bytecode":{"object":"0x608060405234801561000f575f80fd5b5060405161170338038061170383398101604081905261002e916100dc565b6001600160a01b03831661007d5760405162461bcd60e51b815260206004820152601260248201527142617369733a207a65726f206f7261636c6560701b604482015260640160405180910390fd5b5f8054336001600160a01b0319909116179055600180546002929092556001600160a01b03939093166001600160b01b031990911617600160a01b61ffff929092169182021761ffff60b01b1916600160b01b9190910217905561012d565b5f805f606084860312156100ee575f80fd5b83516001600160a01b0381168114610104575f80fd5b602085015190935061ffff8116811461011b575f80fd5b80925050604084015190509250925092565b6115c98061013a5f395ff3fe608060405234801561000f575f80fd5b5060043610610111575f3560e01c80637adbf9731161009e5780639ead72221161006e5780639ead722214610261578063b21916bf14610274578063b673fcb214610294578063c82bfbb7146102a7578063d48bfca7146102be575f80fd5b80637adbf973146101ff5780637dc0d1d0146102125780638da5cb5b1461023d578063932713681461024f575f80fd5b806342cde4e8116100e457806342cde4e81461019e5780634bf85f33146101b35780635fa7b584146101c657806375f0bb52146101d9578063793e6410146101ec575f80fd5b806305621dc9146101155780633103a0001461012a5780633ce3d6db1461015757806341a446341461016c575b5f80fd5b610128610123366004610f77565b6102d1565b005b60015461013f90600160b01b900461ffff1681565b60405161ffff90911681526020015b60405180910390f35b61015f610369565b60405161014e9190610f99565b61018e61017a366004611009565b60036020525f908152604090205460ff1681565b604051901515815260200161014e565b60015461013f90600160a01b900461ffff1681565b6101286101c1366004611024565b6103c9565b6101286101d4366004611009565b61045d565b6101286101e736600461114d565b61062f565b6101286101fa366004610f77565b61091f565b61012861020d366004611009565b6109a6565b600154610225906001600160a01b031681565b6040516001600160a01b03909116815260200161014e565b5f54610225906001600160a01b031681565b61012861025d366004611236565b5050565b61022561026f366004611264565b610a6b565b610287610282366004611009565b610a93565b60405161014e91906112be565b6101286102a2366004611264565b610b2a565b6102b060025481565b60405190815260200161014e565b6101286102cc366004611009565b610b91565b5f546001600160a01b031633146103035760405162461bcd60e51b81526004016102fa906112d0565b60405180910390fd5b6001805461ffff838116600160b01b81810261ffff60b01b1985161790945560408051949093049091168084526020840191909152917fdd6b72f45593d41984eff8362c281fc64df3afa43951b4b3b327fabcd2a43b9191015b60405180910390a15050565b606060048054806020026020016040519081016040528092919081815260200182805480156103bf57602002820191905f5260205f20905b81546001600160a01b031681526001909101906020018083116103a1575b5050505050905090565b5f546001600160a01b031633146103f25760405162461bcd60e51b81526004016102fa906112d0565b6001600160a01b0383165f90815260056020526040902061041482848361137d565b50826001600160a01b03167f7d5d14d756e60a5f0ba2f33d9364a0f06b80a28a1577740e68ee7b5c73e902f08383604051610450929190611437565b60405180910390a2505050565b5f546001600160a01b031633146104865760405162461bcd60e51b81526004016102fa906112d0565b6001600160a01b0381165f9081526003602052604090205460ff166104e45760405162461bcd60e51b815260206004820152601460248201527310985cda5cce881b9bdd081b5bdb9a5d1bdc995960621b60448201526064016102fa565b6001600160a01b0381165f908152600360205260408120805460ff191690555b6004548110156105f857816001600160a01b03166004828154811061052b5761052b611465565b5f918252602090912001546001600160a01b0316036105f0576004805461055490600190611479565b8154811061056457610564611465565b5f91825260209091200154600480546001600160a01b03909216918390811061058f5761058f611465565b905f5260205f20015f6101000a8154816001600160a01b0302191690836001600160a01b0316021790555060048054806105cb576105cb611498565b5f8281526020902081015f1990810180546001600160a01b03191690550190556105f8565b600101610504565b506040516001600160a01b038216907f4c910b69fe65a61f7531b9c5042b2329ca7179c77290aa7e2eb3afa3c8511fd3905f90a250565b5f886001811115610642576106426114ac565b03610912576001600160a01b038b165f9081526003602052604090205460ff1615610675576106708b610cad565b610912565b6001600160a01b038b165f9081526005602052604081208054610697906112fa565b80601f01602080910402602001604051908101604052809291908181526020018280546106c3906112fa565b801561070e5780601f106106e55761010080835404028352916020019161070e565b820191905f5260205f20905b8154815290600101906020018083116106f157829003601f168201915b505050505090505f8151118015610727575060248a5110155b1561073b5761073581610e3b565b50610912565b60248a5110610910575f6107508b6010610f57565b6001600160a01b0381165f9081526003602052604090205490915060ff161561090e576001600160a01b038d165f9081526005602052604081208054610795906112fa565b80601f01602080910402602001604051908101604052809291908181526020018280546107c1906112fa565b801561080c5780601f106107e35761010080835404028352916020019161080c565b820191905f5260205f20905b8154815290600101906020018083116107ef57829003601f168201915b505050505090505f81511115610903576001546040516308104c9560e41b81525f916001600160a01b031690638104c9509061084e90869086906004016114c0565b602060405180830381865afa158015610869573d5f803e3d5ffd5b505050506040513d601f19601f8201168201806040525081019061088d91906114eb565b905061ffff811615806108b1575060015461ffff600160b01b909104811690821610155b6108fd5760405162461bcd60e51b815260206004820181905260248201527f42617369733a204351492073636f72652062656c6f77207468726573686f6c6460448201526064016102fa565b5061090c565b61090c82610cad565b505b505b505b5050505050505050505050565b5f546001600160a01b031633146109485760405162461bcd60e51b81526004016102fa906112d0565b6001805461ffff838116600160a01b81810261ffff60a01b1985161790945560408051949093049091168084526020840191909152917f6d376155ca9c94f7d9c66ca45d5899caa3558291c377422b93b6aefc3093f3dc910161035d565b5f546001600160a01b031633146109cf5760405162461bcd60e51b81526004016102fa906112d0565b6001600160a01b038116610a1a5760405162461bcd60e51b815260206004820152601260248201527142617369733a207a65726f206f7261636c6560701b60448201526064016102fa565b600180546001600160a01b038381166001600160a01b0319831681179093556040519116919082907f078c3b417dadf69374a59793b829c52001247130433427049317bde56607b1b7905f90a35050565b60048181548110610a7a575f80fd5b5f918252602090912001546001600160a01b0316905081565b60056020525f908152604090208054610aab906112fa565b80601f0160208091040260200160405190810160405280929190818152602001828054610ad7906112fa565b8015610b225780601f10610af957610100808354040283529160200191610b22565b820191905f5260205f20905b815481529060010190602001808311610b0557829003601f168201915b505050505081565b5f546001600160a01b03163314610b535760405162461bcd60e51b81526004016102fa906112d0565b600280549082905560408051828152602081018490527f1080167937a19a990c2bae65896fd58f3aef5ac8ac6477cf5a96c9b1db9f64b7910161035d565b5f546001600160a01b03163314610bba5760405162461bcd60e51b81526004016102fa906112d0565b6001600160a01b0381165f9081526003602052604090205460ff1615610c225760405162461bcd60e51b815260206004820152601860248201527f42617369733a20616c7265616479206d6f6e69746f726564000000000000000060448201526064016102fa565b6001600160a01b0381165f81815260036020526040808220805460ff1916600190811790915560048054918201815583527f8a35acfbc15ff81a39ae7d344fd709f28e8600b4aa8c65c6b64bfe7fe36bd19b0180546001600160a01b03191684179055517f784c8f4dbf0ffedd6e72c76501c545a70f8b203b30a26ce542bf92ba87c248a49190a250565b6001546002546040516371870d1160e11b81526001600160a01b038481166004830152602482019290925291169063e30e1a2290604401602060405180830381865afa158015610cff573d5f803e3d5ffd5b505050506040513d601f19601f82011682018060405250810190610d239190611506565b15610d685760405162461bcd60e51b815260206004820152601560248201527442617369733a2073636f7265206973207374616c6560581b60448201526064016102fa565b600154604051630d47875d60e41b81526001600160a01b0383811660048301525f92169063d47875d090602401608060405180830381865afa158015610db0573d5f803e3d5ffd5b505050506040513d601f19601f82011682018060405250810190610dd49190611521565b50506001549192505061ffff600160a01b9091048116908216101561025d5760405162461bcd60e51b815260206004820181905260248201527f42617369733a205349492073636f72652062656c6f77207468726573686f6c6460448201526064016102fa565b6004545f5b81811015610f52575f60048281548110610e5c57610e5c611465565b5f9182526020822001546001546040516308104c9560e41b81526001600160a01b039283169450911690638104c95090610e9c90859089906004016114c0565b602060405180830381865afa158015610eb7573d5f803e3d5ffd5b505050506040513d601f19601f82011682018060405250810190610edb91906114eb565b905061ffff811615610f485760015461ffff600160b01b90910481169082161015610f485760405162461bcd60e51b815260206004820181905260248201527f42617369733a204351492073636f72652062656c6f77207468726573686f6c6460448201526064016102fa565b5050600101610e40565b505050565b818101602001515b92915050565b61ffff81168114610f74575f80fd5b50565b5f60208284031215610f87575f80fd5b8135610f9281610f65565b9392505050565b602080825282518282018190525f9190848201906040850190845b81811015610fd95783516001600160a01b031683529284019291840191600101610fb4565b50909695505050505050565b6001600160a01b0381168114610f74575f80fd5b803561100481610fe5565b919050565b5f60208284031215611019575f80fd5b8135610f9281610fe5565b5f805f60408486031215611036575f80fd5b833561104181610fe5565b9250602084013567ffffffffffffffff8082111561105d575f80fd5b818601915086601f830112611070575f80fd5b81358181111561107e575f80fd5b87602082850101111561108f575f80fd5b6020830194508093505050509250925092565b634e487b7160e01b5f52604160045260245ffd5b5f82601f8301126110c5575f80fd5b813567ffffffffffffffff808211156110e0576110e06110a2565b604051601f8301601f19908116603f01168101908282118183101715611108576111086110a2565b81604052838152866020858801011115611120575f80fd5b836020870160208301375f602085830101528094505050505092915050565b803560028110611004575f80fd5b5f805f805f805f805f805f6101608c8e031215611168575f80fd5b6111718c610ff9565b9a5060208c0135995067ffffffffffffffff8060408e01351115611193575f80fd5b6111a38e60408f01358f016110b6565b99506111b160608e0161113f565b985060808d0135975060a08d0135965060c08d013595506111d460e08e01610ff9565b94506111e36101008e01610ff9565b9350806101208e013511156111f6575f80fd5b506112088d6101208e01358e016110b6565b91506112176101408d01610ff9565b90509295989b509295989b9093969950565b8015158114610f74575f80fd5b5f8060408385031215611247575f80fd5b82359150602083013561125981611229565b809150509250929050565b5f60208284031215611274575f80fd5b5035919050565b5f81518084525f5b8181101561129f57602081850181015186830182015201611283565b505f602082860101526020601f19601f83011685010191505092915050565b602081525f610f92602083018461127b565b60208082526010908201526f2130b9b4b99d103737ba1037bbb732b960811b604082015260600190565b600181811c9082168061130e57607f821691505b60208210810361132c57634e487b7160e01b5f52602260045260245ffd5b50919050565b601f821115610f5257805f5260205f20601f840160051c810160208510156113575750805b601f840160051c820191505b81811015611376575f8155600101611363565b5050505050565b67ffffffffffffffff831115611395576113956110a2565b6113a9836113a383546112fa565b83611332565b5f601f8411600181146113da575f85156113c35750838201355b5f19600387901b1c1916600186901b178355611376565b5f83815260208120601f198716915b8281101561140957868501358255602094850194600190920191016113e9565b5086821015611425575f1960f88860031b161c19848701351681555b505060018560011b0183555050505050565b60208152816020820152818360408301375f818301604090810191909152601f909201601f19160101919050565b634e487b7160e01b5f52603260045260245ffd5b81810381811115610f5f57634e487b7160e01b5f52601160045260245ffd5b634e487b7160e01b5f52603160045260245ffd5b634e487b7160e01b5f52602160045260245ffd5b6001600160a01b03831681526040602082018190525f906114e39083018461127b565b949350505050565b5f602082840312156114fb575f80fd5b8151610f9281610f65565b5f60208284031215611516575f80fd5b8151610f9281611229565b5f805f8060808587031215611534575f80fd5b845161153f81610f65565b60208601519094506001600160f01b03198116811461155c575f80fd5b604086015190935065ffffffffffff81168114611577575f80fd5b606086015190925061158881610f65565b93969295509093505056fea2646970667358221220228d614e5f30e63dbf7483100cbf1a948512b224c77feee9ca38dba5bb11dd7264736f6c63430008180033","linkReferences":{}},"methodIdentifiers":{"addToken(address)":"d48bfca7","checkAfterExecution(bytes32,bool)":"93271368","checkTransaction(address,uint256,bytes,uint8,uint256,uint256,uint256,address,address,bytes,address)":"75f0bb52","cqiThreshold()":"3103a000","getMonitoredTokens()":"3ce3d6db","maxScoreAge()":"c82bfbb7","monitoredTokens(address)":"41a44634","oracle()":"7dc0d1d0","owner()":"8da5cb5b","protocolSlugs(address)":"b21916bf","removeToken(address)":"5fa7b584","setCqiThreshold(uint16)":"05621dc9","setMaxScoreAge(uint256)":"b673fcb2","setOracle(address)":"7adbf973","setProtocolSlug(address,string)":"4bf85f33","setThreshold(uint16)":"793e6410","threshold()":"42cde4e8","tokenList(uint256)":"9ead7222"},"id":1}